:10800000000001205D7A0200714502007145020006
:108010007145020071450200714502000000000038
:108020000000000000000000000000007145020098
:1080300071450200000000007145020029CF0100D7
:108040007145020071450200714502007145020050
:108050007145020071450200714502007145020040
:108060007145020071450200714502007145020030
:108070007145020071450200714502007145020020
:108080007145020071450200714502007145020010
:108090007145020071450200714502007145020000
:1080A00071450200714502007145020071450200F0
:1080B00071450200714502007145020071450200E0
:1080C00071450200714502007145020071450200D0
:1080D00071450200714502007145020071450200C0
:1080E00071450200714502007145020071450200B0
:1080F0007145020071E10100714502007145020005
:108100007145020005E6010071450200714502005B
:10811000714502004DDF010071450200714502000A
:10812000714502007145020071450200714502006F
:10813000714502007145020071450200B9FC010061
:10814000D1F1010071450200714502007145020044
:10815000714502007145020071450200714502003F
:108160007145020009580200714502007145020084
:10817000714502007145020071450200714502001F
:10818000714502007145020071450200714502000F
:1081900071450200714502007145020071450200FF
:1081A0005DF1010071450200714502007145020058
:0C81B0007145020071450200714502009B
:10840000FFFFFFFFFFFFFFFFFFFFFFFF7EF9FFFF03
:1084200010B5054C237833B9044B13B10448AFF3AE
:1084300000800123237010BD0010FF1F000000000A
:10844000DCA702000C4B43B10C480D4910B5AFF34B
:1084500000800C48036823B910BD0A48036833B98B
:108460007047094B002BF7D0BDE810401847064B6A
:10847000002BF5D0184700BF00000000DCA7020069
:108480000410FF1F040FFF1F0000000010B516F0BE
:10849000CFFE064B00221A70054B1B689847054B10
:1084A0009B69BDE810405B69184700BFC409FF1F06
:1084B000A800FF1F108D0200431E2DE9F04715464E
:1084C000072B00F24F82DFE813F008000E000E00C9
:1084D00051006C00BC000301B301FFF7D7FF47F662
:1084E000A8532B603FE0764B764C022816BFA1467E
:1084F00099461C46744BDF68A9F10409043C4FF00F
:10850000FF364FF000084FF0010A3B68D9F804002D
:108510001B6998473B686068DB6898473B68606800
:108520005B6998473B68D9F804001B6A984718B9FB
:108530000AFA08F326EA03063B6854F8040F9B691D
:1085400098473B6859F8040F1B6A984718B10AFA14
:1085500008F326EA030608F10108B8F1110FD4D197
:10856000C6F310062E600020BDE8F08729600329BD
:108570001DD8DFE801F0020B0F13534BDB691B68BA
:108580001B889AB2322353431B14AAE74E4BDB6974
:108590005B68F5E74C4BDB699B68F1E74B4B1B696C
:1085A0009FE7012929601CD004D302292FD0022083
:1085B000BDE8F087444BDC68606823686430DB68A2
:1085C0009847606823688430DB6898472368606850
:1085D0005B6964309847236860685B6984309847BA
:1085E000C1E7394BDC6860682368C430DB689847B2
:1085F00060682368A430DB68984760682368C430EB
:108600005B699847236860685B69A430E7E72E4B95
:10861000DC686068236800F5A270DB6898476068D2
:10862000236800F5B270DB6898476068236800F53E
:10863000A2705B699847236860685B6900F5B27057
:10864000CDE70129296025D019D30229AFD11E4BCE
:10865000DC686068236800F5A270DB689847606892
:10866000236800F5B270DB6898476068236800F5FE
:10867000A2705B699847236860689B69DEE7124BCC
:10868000DC68606823688430DB689847236860682A
:108690001B699EE70C4BDC6860682368C430DB68AC
:1086A000984760682368A430DB689847606823684F
:1086B000C4305B699847236860689B69A5E700BF81
:1086C0004035FF1F2034FF1F108D0200C409FF1F1B
:1086D0002960002956D001297FF469AF7B4BDC6803
:1086E0006068236800F2C460DB68984760682368AC
:1086F00000F2C4609B6998476068236800F2E460F8
:10870000DB6898476068236800F2E4609B699847DB
:108710006068236800F20470DB689847606823682B
:1087200000F204709B6998476068236800F2247027
:10873000DB6898476068236800F224709B6998475B
:108740006068236800F24470DB68984760682368BB
:1087500000F244709B6998476068236800F2647077
:10876000DB6898476068236800F264709B699847EB
:108770006068236800F28470DB689847236860684B
:108780009B6952E0514BDD6868682B6800F2C46059
:10879000DB68984768682B6800F2C4605B6998479B
:1087A00068682B6800F2E460DB68984768682B68AB
:1087B00000F2E4605B69984768682B6800F2047017
:1087C000DB68984768682B6800F204705B6998471B
:1087D00068682B6800F22470DB68984768682B682B
:1087E00000F224705B69984768682B6800F2447057
:1087F000DB68984768682B6800F244705B699847AB
:1088000068682B6800F26470DB68984768682B68BA
:1088100000F264705B69984768682B6800F28470A6
:10882000DB6898472B6868685B6900F28470D6E65D
:10883000296000294CD001297FF4B9AE234BDC68B4
:108840006068236800F28450DB689847606823689A
:1088500000F284509B6998476068236800F2A45036
:10886000DB6898476068236800F2A4509B699847CA
:108870006068236800F2C450DB689847606823682A
:1088800000F2C4509B6998476068236800F2E45086
:10889000DB6898476068236800F2E4509B6998475A
:1088A0006068236800F20460DB68984760682368AA
:1088B00000F204609B6998476068236800F22460B6
:1088C000DB689847236860689B6948E0108D020068
:1088D000264BDD6868682B6800F28450DB68984797
:1088E00068682B6800F284505B69984768682B6859
:1088F00000F2A450DB68984768682B6800F2A45027
:108900005B69984768682B6800F2C450DB68984739
:1089100068682B6800F2C4505B69984768682B68E8
:1089200000F2E450DB68984768682B6800F2E45076
:108930005B69984768682B6800F20460DB689847B9
:1089400068682B6800F204605B69984768682B6868
:1089500000F22460DB6898472B6868685B6900F266
:1089600024603CE60420BDE8F08700BF108D0200C3
:1089700038B5064C2368C31AB3F5FA7F054604D30D
:10898000034B9B699B699847256038BD1C10FF1FEE
:10899000108D02003A4B3B4ADB685B6803F592712D
:1089A000116003F14401516003F18401916003F10E
:1089B000C401D16003F58271116103F5B271516197
:1089C00003F5D271916103F5F271D16103F509717B
:1089D000116203F51971516203F52971916203F572
:1089E0003971D16203F54971116303F5597151630E
:1089F00003F56971916303F57971D16303F2244141
:108A00001164214A191D116003F12401516003F121
:108A10006401916003F1A401D16003F1E4011161EB
:108A200003F5A271516103F5C271916103F5E27121
:108A3000D16103F50171116203F51171516203F502
:108A40002171916203F53171D16203F541711163B6
:108A500003F55171516303F56171916303F5717110
:108A600003F204431364094BD16301221A70084BCB
:108A7000084A1A65084A9A65084A5A65704700BF4D
:108A8000108D02002034FF1F4035FF1FC409FF1F57
:108A90006434FF1FB98400008D84000071890000D8
:108AA00070470220704702207047704770470220CD
:108AB00070470220704702207047012070477047BE
:108AC00070474369124A134910B5C3F80422C3F82A
:108AD0000822114B8365114B836183620363C36179
:108AE0000F4B43640F4B83640F4B4363C3630364B7
:108AF0000E4B0F4A0F4C416203660F49426500233B
:108B0000C16284630465C164C265836610BD00BF31
:108B1000BB8A0000A38A0000A18A0000A78A000087
:108B2000AB8A0000AD8A0000B38A0000BF8A000053
:108B3000C18A0000B78A0000AF8A0000704700BFFA
:108B40000A480B4B0022012110B44FF0FF3480F88B
:108B50007C205A7083F810124467C0F88030816717
:108B600002671A706C3010BCFFF7ABBF6434FF1F94
:108B70002C10FF1F0848094A426100230121C160EF
:108B800013704FF0FF31537082F81032816003741C
:108B90004360FFF796BF00BF6434FF1F4C12FF1FF6
:108BA00010B50023064C18461A5D590002F0030266
:108BB00001338A40072B40EA0200F5D110BD00BF07
:108BC0006C14FF1F044900235A5C02F00302C254D4
:108BD0000133072BF8D170476C14FF1F074B1A782D
:108BE00002705A7842709A788270DA78C2701A7974
:108BF00002715A7942719B79837170476C14FF1F1F
:108C0000F8B5094B094F0A4DDE680024E15D336871
:108C10006A6CDB6952F8240001F0030101349847C3
:108C2000072CF3D1F8BD00BF108D02006C14FF1F9C
:108C30000800FF1F054A002300F003019954013387
:108C4000072B4FEA9000F7D1DAE700BF6C14FF1F43
:108C5000014B586AEEE700BF0800FF1F04490023DC
:108C6000C25C02F003025A540133072BF8D1C7E764
:108C70006C14FF1F074B02781A7042785A70827882
:108C80009A70C278DA7002791A7142795A718279CF
:108C90009A71B5E76C14FF1F014B00221A677047E9
:108CA0006434FF1F70B50B4E0B4D33682A460146E6
:108CB0000446002017F01DFD002017F0E5F833688A
:108CC0002A462146012017F014FD0120BDE870401E
:108CD00017F0DAB80438FF1F8435FF1F012808B5E4
:108CE00003D817F0C5F8002008BD082008BD0128EA
:108CF00008B503D817F0B0F8002008BD082008BD5B
:108D00000021F4E74942F2E7F1E7024B186817F057
:108D100000BD00BF0438FF1F38B5002017F092F9DE
:108D200008B1002038BD012017F08CF90546002855
:108D3000F7D10A4B0A4C186817F0E2FC17F0C8F993
:108D40002B46A2682168284617F012F92B46E268E4
:108D50006168012017F00CF9012038BD0438FF1FAD
:108D6000A014FF1F022804BF0B4B93F8D80030B9A2
:108D70000A4BDB681B685B69094A106918470128C0
:108D800009D1054B93F8D830012B04D1034BDB6894
:108D90001B689B69F0E770476434FF1F108D020069
:108DA000A014FF1F70B50020FFF7DCFF0A4B0B4C2F
:108DB000DD6820692B689B6898472B68206A9B6850
:108DC00098472B68606A9B68984717F0CFF9044B67
:108DD000BDE870405B681847108D0200A014FF1FAB
:108DE0007409FF1F012838B504460D4605D820B97F
:108DF00017F028F92860204638BD082038BD022821
:108E000010B5144610D0032815D0012817D10D4BEA
:108E10000D4ADB68106A1B681B6A9847003018BF50
:108E200001202060002010BD064B074ADB68506A15
:108E30001B681B6AF1E7084617F07AF8F1E704208F
:108E400010BD00BF108D0200A014FF1F012838B50F
:108E500004460D4608D817F0DBF82B68C1182960C6
:108E60002046BDE8384039E7082038BD2DE9F843F1
:108E7000184C9DF820609DF82450984623680F46B2
:108E80009B68002147F080009146984723680021A5
:108E90009B6848469847236800219B68404698474E
:108EA000236800219B6830469847236828469B68C2
:108EB00001219847084B1B6848EA092807F07F07FB
:108EC00046EA082603EB870745EA06257D60BDE8EC
:108ED000F88300BF0838FF1F0438FF1F07B5D3B25F
:108EE0000193C2F307230093C2F30743120EFFF767
:108EF000BDFF03B05DF804FB0020FFF7EFBF38B5FE
:108F0000234B01F07F04234493F80032DB0705D4A0
:108F1000204B1B6803EB8404606838BD1E4D2B6832
:108F200000219B68204698472B6800219B680846D3
:108F300098472B6800219B68084698472B680021BA
:108F40009B68084698472B6801219B68002098473A
:108F50002B6800219B68204698472B6800219B685E
:108F6000084698472B68002104029B6808469847EA
:108F70002B68002104439B68084698472B6824020D
:108F800004439B680121002098472402204338BDF8
:108F90008435FF1F0438FF1F0838FF1F10B500205D
:108FA0001446FFF7ACFF206010BDA42A2DE9F04164
:108FB00004460D461E4600F0C18149D8062A00F03D
:108FC000E38017D8022A00F0B78007D8002A00F003
:108FD0009680012A00F0A480042499E0042A00F07D
:108FE000BD8040F2B580002840F0C780084617F0E9
:108FF00045F888E01D2A00F01D8114D8082A00F0E9
:109000000081C0F0E1801C2AE6D1002840F00081F8
:10901000090141F06C0101F0FC012846FFF76FFFE8
:10902000C0F380406FE0A22A00F04C8100F268811A
:109030008C2AD1D1002840F00381090141F06C0154
:1090400001F0FC012846FFF75AFFC0F303605AE025
:10905000AC2A00F0878229D8A82A00F0188212D8FA
:10906000A62A00F0D98140F28781002840F0FE81D5
:10907000090141F06C0101F0FC012846FFF73FFFB8
:1090800000F00F003FE0AA2A00F03C8240F21C8270
:10909000002840F05582090141F06D0101F0FD0109
:1090A0002846FFF72CFFC0F341102CE0B42A00F053
:1090B000BC8214D8AE2A00F08182C0F06182B32A4B
:1090C0008AD1002840F09F82090141F06C0101F033
:1090D000FC012846FFF713FFC0F3404013E0B82A15
:1090E00000F0B882CE2A00F0D382B52A7FF474AFA4
:1090F000002840F0A782084616F0DCFF03E020B904
:10910000084616F091FF306002E0012803D00024E9
:109110002046BDE8F0811968284616F0A9FEF6E75A
:1091200018B9084616F074FFEDE70128EFD1196869
:10913000284616F047FFEAE718B9084616F090FFF0
:10914000E1E70128E3D11968284616F085FEDEE73D
:10915000002871D1084616F075FFD4E718B9084603
:1091600016F09AFFCFE70128D1D119680029B8BFBE
:109170004942284616F034FFC9E70128C7D11968CB
:10918000284617F024F8C2E750B92021A94041F041
:109190001001C9B22846FFF7B2FEC0F30420B2E7BF
:1091A0000128B4D120248C4044F01004E4B22146BC
:1091B0002846FFF7A4FE33681B0203F4F85320F49B
:1091C000F8521A43214623E150B92021A94041F029
:1091D0001001C9B22846FFF792FE00F01F0092E787
:1091E000012894D120248C4044F01004E4B221469C
:1091F0002846FFF784FE336820F01F0203F01F03A8
:10920000DFE7C8B9084616F093FEC0F300107AE70E
:1092100001287FF47CAF0C0144F06C04E4B22146D9
:109220002846FFF76CFE33689B0403F4802320F488
:109230008022C6E700288ED0012C3FF4CDAE66E731
:1092400001287FF464AF1B68102B23D00DDC022BA8
:109250001CD004DC012B16D04FF0FF3314E0042B9C
:1092600016D0082BF8D105230EE0402B14D003DCD8
:10927000202BF1D1032307E0802B0FD0B3F5807FA3
:10928000EAD1002300E00823336008E00723FBE76E
:109290000623F9E70423F7E70223F5E73060336894
:1092A00001333FF434AF2C0144F06C04E4B22146A6
:1092B0002846FFF724FE33681B0603F0706320F096
:1092C00070627EE750B9090141F06C0101F0FC01C8
:1092D0002846FFF714FEC0F3C13014E701287FF4DD
:1092E00016AF0C0144F06C04E4B221462846FFF7A7
:1092F00006FE3368DB0303F4C03320F4C03260E7BA
:1093000050B9090141F06C0101F0FC012846FFF75A
:10931000F6FDC0F38030F6E601287FF4F8AE0C01CC
:1093200044F06C04E4B221462846FFF7E8FD3368B8
:109330009B0303F4804320F4804242E750B90901C3
:1093400041F06C0101F0FC012846FFF7D8FDC0F3A5
:109350000030D8E601287FF4DAAE0C0144F06C044A
:10936000E4B221462846FFF7CAFD33681B0303F425
:10937000805320F4805224E70F0147F06C07FFB2BE
:1093800039462846FFF7BBFD8046A4B918F4804F44
:109390003946284604D0FFF7B2FDC0F3C310B2E649
:1093A000FFF7ADFD18F4006FC0F3021018BF40F0D6
:1093B00008003060ABE6012C7FF4A9AE18F48048B9
:1093C0003946284608D0FFF79AFD3368DB0103F4DD
:1093D000F06320F4F06247E0FFF791FD326812017C
:1093E00020F0700002F07002024339462846FFF771
:1093F00075FD39462846FFF782FD336813F0080FE4
:1094000020F4006218BF4FF4006842EA08023946AF
:109410002846FFF763FD7AE60F0147F06C07FFB2BD
:1094200039462846FFF76BFD74B910F48048394679
:10943000284604D0FFF763FDC0F3021063E6FFF790
:109440005EFDC0F3C310B4E7012C7FF460AE10F4EE
:10945000804F39462846B6D0FFF751FD33681B01CF
:1094600003F0700320F070021A43D0E701287FF464
:109470004EAE0C0144F06C04E4B221462846FFF7DE
:109480003EFD336820F00F0203F00F0399E650B958
:10949000090141F06D0101F0FD012846FFF72FFDA4
:1094A000C0F3C0302FE601287FF431AE0C0144F048
:1094B0006D04E4B221462846FFF721FD3368DB0343
:1094C0009BB220F400427CE650B9090141F06D01E5
:1094D00001F0FD012846FFF712FDC0F3413012E60E
:1094E00001287FF414AE0C0144F06D04E4B221466F
:1094F0002846FFF704FD33685B0303F4C04320F400
:10950000C0425EE650B9090141F06D0101F0FD0174
:109510002846FFF7F4FCC0F30320F4E501287FF4AC
:10952000F6AD0C0144F06D04E4B221462846FFF785
:10953000E6FC33681B0203F4706320F4706240E6BB
:1095400001287FF4E4AD0C0144F06D04E4B221463F
:109550002846FFF7D4FC33685B0103F0600320F07A
:1095600060022EE628B9090141F06D0101F0FD010C
:1095700083E501287FF4CBAD0C0144F06D047BE75B
:1095800050B9090141F06D0101F0FD012846FFF7D6
:10959000B6FCC0F30060B6E501287FF4B8AD0C015D
:1095A00044F06D04E4B221462846FFF7A8FC336876
:1095B0001B0603F0807320F0807202E688B909016F
:1095C00041F06D0101F0FD012846FFF798FC001401
:1095D00000F07F0310F0400018BF6FF07F001843C9
:1095E00091E501287FF493AD0C0144F06D04E4B2E1
:1095F00021462846FFF783FC33681B0403F4FE036F
:1096000020F4FE02DDE501287FF481AD0C0144F079
:109610006C04E4B221462846FFF771FC33685B0412
:1096200003F4003320F40032CBE500287FF404AECD
:10963000090141F06F01C9B22846FFF760FCC0F391
:10964000044060E501287FF462AD1968284616F0F1
:10965000D1FC5CE550B9090141F06C0101F0FC015D
:109660002846FFF74CFCC0F340304CE501287FF45E
:109670004EAD0C0144F06C04E4B221462846FFF7DD
:109680003EFC33685B0303F4005320F4005298E57A
:1096900000287FF4D1AD090141F06F01C9B228461D
:1096A000FFF72DFCC0F309002DE507B50129019254
:1096B00007D8024601AB0120FFF777FC03B05DF845
:1096C00004FB0820FAE70129134602D802460020CD
:1096D0006BE40820704770B54E4E4F484F4C16F063
:1096E000D5FFF5686B6803F16402226103F1E402BF
:1096F000626203F58272226203F5A272A26003F530
:10970000B27203F59270626003F5C27203F50173E1
:10971000A3622B68E260DB68206098472B68A06832
:10972000DB6898472B686068DB6898472B68E068BF
:10973000DB6898472B682069DB6898472B68A06A2C
:10974000DB68374D98473369364A03F114011160DD
:10975000A26A9A61344B354A1A6016F0B9FC0023AC
:10976000A2682168184616F003FCE26861680023CD
:10977000012016F0FDFB2E4B2E49D3F88020C2F8B5
:1097800004122D49C2F808120024012111705470EE
:109790002A4AC3F88C202A4AC3F88820294AC3F8E9
:1097A0008420294AC3F89020284AC3F8A420284AD4
:1097B000C3F8A020274AC3F89420274AC3F898206A
:1097C000264AC3F8B420264AC3F8B020254AC3F875
:1097D000C020254AC3F8BC20244AC3F8B820244A34
:1097E000C3F8CC20234AC3F8C82032229A674FF42A
:1097F0008F7202205A67204A83F87C00C3F8C42085
:10980000FFF7B0FA2B689847AB682046BDE8704078
:10981000184700BF108D02008435FF1FA014FF1FE2
:109820007409FF1F0838FF1F0438FF1F2C10FF1F8B
:109830006434FF1F198D00000B8D0000EF8C0000B9
:10984000098D0000058D0000018D0000C796000005
:10985000AB960000DD8C00004D8E0000F98E0000FC
:109860009D8F0000A58C0000FF8D0000E58D00009D
:10987000658D0000998C0000A58D0000014B1046FD
:10988000DB6B18470800FF1F034B10B51B6C144619
:109890009847206010BD00BF0800FF1F07B5034BAD
:1098A00068461B6B984703B05DF804FB0800FF1F78
:1098B00070B50020FFF7F2FF1E4B1F4CDD68206BD8
:1098C0002B689B6898472B68E06A9B6898472B68D1
:1098D000E0689B6898472B68A0689B6898472B684E
:1098E00060689B6898472B6820689B6898472B683E
:1098F000A0699B6898472B68E0699B6898472B682C
:10990000A06A9B6898472B6860699B6898472B689A
:10991000206A9B6898472B68606A9B6898472B6809
:1099200020699B68984716F021FC044BBDE8704005
:109930005B681847108D0200D814FF1F7409FF1FC1
:10994000002016F0A1BA10B5044618B916F090FA26
:10995000204610BD082010BD10B5044618B916F0F9
:109960007BFA204610BD082010BD0021F4E74942D3
:10997000F2E7F1E7062873B505460C465DD80229E3
:1099800003D901285BD10F2959DC2E4E6846336B71
:1099900098473346052D06D8DFE805F0030B43460C
:1099A000494C8DF800406846DB6A9847002002B0B9
:1099B00070BD082CF7D8DFE804F0050C11161B2049
:1099C000252A2F00F2788DF80120327B8DF80220B5
:1099D000E9E732798DF80120727BF7E772798DF82B
:1099E0000120B27BF2E7B2798DF80120F27BEDE73E
:1099F000F2798DF80120327CE8E7727A8DF8012047
:109A0000B27CE3E7B27A8DF80120F27CDEE7327AAD
:109A10008DF80120727CD9E7F27A8DF80120327D31
:109A2000D4E78DF80340BEE78DF80440BBE78DF81E
:109A30000540B8E78DF80640B5E70420B7E71020E9
:109A4000B5E700BF0800FF1F73B5404D04462B6B00
:109A500068460E4698472B46062C1DD8DFE804F0D2
:109A6000700464676A6D70009DF80120E978914286
:109A700008D19DF80200297B884203D10020306084
:109A800002B070BD1979914208D19DF80200597B4E
:109A9000884203D1012333600020F1E759799142D4
:109AA00006D19DF80200997B884201D10223F2E79A
:109AB0009979914206D19DF80200D97B884201D163
:109AC0000323E8E7D979914206D19DF80200197C79
:109AD000884201D10423DEE7597A914206D19DF8EC
:109AE0000200997C884201D10523D4E7997A9142FA
:109AF00006D19DF80200D97C884201D10623CAE72D
:109B0000197A914206D19DF80200597C884201D110
:109B10000723C0E7D97A914215D19DF802201B7D19
:109B20009A4210D10823B6E79DF80330B3E79DF8B9
:109B30000430B0E79DF80530ADE79DF80630AAE7A0
:109B40009DF80030A7E710209AE700BF0800FF1F2C
:109B500038B5154618B1012807D0042038BD08468D
:109B600016F0E6F92860002038BD094B094DDC6885
:109B7000094B606800F59270D8616B6C586123687E
:109B8000DB6898476A6C236850699B699847EAE7E5
:109B9000108D02000800FF1FD814FF1F38B50C46B7
:109BA000054640B916F034FA2368C11821602846EA
:109BB000BDE83840C7E6082038BD30B585B0054659
:109BC00001920C46002961D10B2812D8062846D2F2
:109BD000022837D004D848B301282CD004242EE022
:109BE000042834D00528F9D11146204616F0EFFAA2
:109BF00025E013280ED80E2846D20C2836D00D2882
:109C0000ECD142F210739A42E8D8214B90B29B6893
:109C1000984714E08C28E1D101A90120FFF714FF37
:109C20001C4B04469B6B02A8984708E0114616F0AF
:109C30001FF92C4603E01146204616F0C3F92046D2
:109C400005B030BD1146204616F006F9F7E782EA66
:109C5000E271A1EBE271204616F0C2F9EFE7063897
:109C60001146C0B2FFF786FE0446E8E715460A4AE9
:109C70000A4BD26812681DB15269D86A9047DEE774
:109C80009269D86A9047D4E70E38E9E70824D6E706
:109C90007409FF1F0800FF1F108D0200D814FF1F5A
:109CA00010B51446002947D1132847D8DFE800F043
:109CB0000A1014181C202424242424242C373E3E6B
:109CC0003E3E3E3E002016F0AFF92060002010BD61
:109CD000002016F09DF9F8E7002016F0C1F9F4E72E
:109CE000002016F0AFF9F0E7002016F0D5F9ECE708
:109CF000002016F0C3F9E8E708281FD1002016F06D
:109D000017F9C0F30010E0E70D4B0E4ADB68D06A8C
:109D10001B681B6A9847003018BF0120D5E7084B25
:109D2000084ADB68106B1B681B6AF3E70E381146A4
:109D3000C0B2FFF789FEC9E7082010BD042010BD9E
:109D4000108D0200D814FF1F6B4B2DE9F041DE6827
:109D50006A4C70686A4F00F5E273236300F5D273B2
:109D6000E36200F52173E36000F52973A36000F559
:109D70001973636000F50173236000F55973A361E3
:109D800000F55173E36100F16403A36200F5A2736F
:109D9000636100F56973236200F571736362336870
:109DA00000F59270DB682061984733686069DB6872
:109DB00098473368206BDB6898473368E06ADB6854
:109DC00098473368206A1B6998473368606A1B6943
:109DD00098477B6CE2681A60A2685A6062689A6071
:109DE0002268DA60A2691A61E2695A61A26A9A611C
:109DF00000257A6C33685059DB6898477A6C336871
:109E000050599B69043598471C2DF2D13D4DD5F82A
:109E100080304FF0000883F8008016F059F943466F
:109E200062692169404616F0A3F844F62061404675
:109E300016F0D6F846F2A811404616F0C8F9324B93
:109E4000C5F88C30314BC5F88830314BC5F88430BB
:109E5000304BC5F89030304BC5F8A4302F4BC5F8C7
:109E6000A0302F4BC5F894302E4BC5F898302E4BB0
:109E7000C5F8B4302D4BC5F8B0302D4BC5F8BC300B
:109E80002C4BC5F8C0302C4BC5F8CC30012385F8DD
:109E90007C300220294BC5F8C430FFF7FFFC404658
:109EA00016F0D0F810B1264B9B789BB1BB6A98474F
:109EB00016F00EF9002318466269216916F058F869
:109EC00044F62061002016F08BF846F2A81100201D
:109ED00016F07DF93368206BDB689847206B194CCE
:109EE0000423437533681B68984723689847A36821
:109EF0000020BDE8F0411847108D0200D814FF1F64
:109F00000800FF1F6434FF1F599900007399000077
:109F10006F9900006B990000A19C0000BB9B0000A2
:109F2000479900009D9B00007D98000089980000E3
:109F3000519B0000419900009D980000B1980000DD
:109F4000C409FF1F7409FF1F1B4B70B5DD681B4C54
:109F50002B68A0685B6998472B6820689B689847C6
:109F60002B6860689B6898472B68206A9B689847B5
:109F70002B68606A9B6898472B68E0689B689847E5
:109F80002B6820699B6898472B6860699B68984795
:109F90002B68A0699B6898472B68E0699B68984785
:109FA0002B68A0689B68984716F0E0F8044BBDE862
:109FB00070405B68184700BF108D02001815FF1F26
:109FC0007409FF1F10B51446052804D8DFE800F017
:109FD000052321343F44042010BD146844F6206357
:109FE0009C4243D8224B234ADB68106A1B6842F22A
:109FF00010718C42DB6994BF00210121984742F225
:10A000001173B4FBF3F003FB10401B4B80B29B6851
:10A010009847002010BD164B1468DB6858681B6811
:10A020002CB1DB69002100F5F2709847F1E79B68DD
:10A0300000F5F2709847ECE70D4B1168DB680D4AAC
:10A040001B681069DB69003118BF0121EDE7084684
:10A0500015F06EFF2060DCE7054B064ADB685868A8
:10A060001B6800F592701061DB68E3E7102010BDFB
:10A07000108D02001815FF1F7409FF1F10B503484B
:10A08000144616F090FB206010BD00BF0C38FF1F77
:10A09000014816F07ABB00BF0C38FF1F10B504460C
:10A0A00018B915F0E5FE204610BD082010BD10B50A
:10A0B000044618B915F0D0FE204610BD082010BD8A
:10A0C0000021F4E74942F2E7F1E7014816F0CDBB81
:10A0D0000C38FF1F08B5002015F0B4FF10B1084B75
:10A0E000987858B1074816F0ABFB15F0F1FF064918
:10A0F0000023184606C915F03BFF012008BD00BF2C
:10A10000C409FF1F0C38FF1F1815FF1F022804BFCA
:10A110000B4B93F8D80030B90A4BDB681B685B69BE
:10A12000094A90681847012809D1054B93F8D8309F
:10A13000012B04D1034BDB681B689B69F0E7704778
:10A140006434FF1F108D02001815FF1F38B50D462F
:10A15000044620B915F076FF2860204638BD082057
:10A1600038BD10B501460D4816F098FB002015F0DB
:10A170008BFE002015F0DCFE10F008040DD18206E5
:10A180000BD56F21054816F00EFBC30105D52046FF
:10A190000221BDE8104015F0A3BE10BD0C38FF1F12
:10A1A000012903D1024A702116F0EFBA704700BFAF
:10A1B000C804050038B50C46054640B915F028FF1F
:10A1C0002368C11821602846BDE8384066E70820AA
:10A1D00038BDA62A70B504460E461D4600F0BA8268
:10A1E00000F28180172A00F0768130D8042A00F02E
:10A1F00029810CD8012A00F00681C0F0F480022ADF
:10A2000000F00D81032A00F016810424F0E0072AF3
:10A2100000F045810ED8052A00F02381062AF4D1EA
:10A22000002840F02A811021BC4816F0BCFAC0F387
:10A230000420DCE0082A00F04681152AE5D1002838
:10A24000E3D0012840F0D8801A68112123E11D2AAB
:10A2500000F0AC811CD81A2A00F06A8109D8182AAB
:10A26000D3D1002840F05E813321AC4816F09BFA30
:10A27000BDE01B2A00F074811C2AC6D1002840F0E2
:10A2800085810146A54816F08EFAC0F34000AEE085
:10A29000A32A00F0EA810ED88C2A00F08E81A22A2F
:10A2A000B3D1002840F0D3816C219C4816F07BFA92
:10A2B000C0F3C1309BE0A42A00F0ED81A52AA4D10F
:10A2C000002840F00E826C21944816F06CFA10F4CD
:10A2D000804F4FF06C01914800F0F38116F063FA63
:10A2E000C0F3C31083E0B52A00F02B833CD8AB2A1F
:10A2F00000F0C08214D8A82A00F07E82C0F06782E5
:10A30000A92A00F09382AA2A7FF47FAF002840F0A8
:10A31000A3826D21814816F046FAC0F3032066E05F
:10A32000AE2A00F0DB820FD8AC2A00F0B982AD2A49
:10A330007FF46BAF002840F0C3826D21774816F0A0
:10A3400032FAC0F3006052E0B32A00F0E482B42A8B
:10A350007FF45BAF002840F02C816F216F4816F02E
:10A3600022FAC0F3044042E0BB2A00F0498316D829
:10A37000B82A00F0058307D8B62A7FF446AF002834
:10A3800040F0EC821421A8E0B92A00F00F83BA2A29
:10A390007FF43BAF002840F0218313219DE0C02AC9
:10A3A00000F079830FD8BC2A00F04F83BF2A7FF4D6
:10A3B0002CAF002840F05D837021584816F0F3F967
:10A3C000C0F3014013E0CC2A00F07883CE2A7FF45A
:10A3D0001CAF002840F0ED806F21504816F0E3F9E3
:10A3E000C0F3090003E028B9084615F01DFE2860F7
:10A3F000204670BD012801D00024F9E719683046D5
:10A4000015F036FDF8E718B9084615F001FEEEE73D
:10A410000128F1D11968304615F0D4FDECE718B9E0
:10A42000084615F01DFEE2E70128E5D1196830461F
:10A4300015F012FDE0E7002840F0BB80084615F05B
:10A4400001FED4E718B9084615F026FECFE701282B
:10A45000D2D119680029B8BF4942304615F0C0FD75
:10A46000CAE718B9084615F009FEC0E70128C3D1AC
:10A470001968304615F0ABFEBEE70128BCD11021AB
:10A48000264816F090F92B681B0203F4F85320F4C9
:10A49000F8521A431021214816F077F9ACE730B989
:10A4A00010211E4816F07FF900F01F009FE70128D9
:10A4B000A2D11021194816F076F92B6820F01F025E
:10A4C00003F01F03E5E7002873D1084615F030FDBF
:10A4D000C0F300108BE778B91521104816F063F926
:10A4E0000F4A002800F078824FF0807393FBF0F061
:10A4F0009042A8BF1046EFE001287FF47DAF1968B5
:10A50000074B49B14FF0807292FBF1F29A42A8BF1B
:10A510001A462A601521BEE71A46FAE70C38FF1FD3
:10A52000FFFF0F0001287FF467AF1A683321B2E7FD
:10A5300030B96C21BC4816F036F9C0F3804056E7BC
:10A5400001287FF459AF6C21B74816F02CF92B681D
:10A550009B0403F4802320F480221A436C219AE7A1
:10A5600030B96C21B04816F01EF9C0F3C0403EE788
:10A5700001287FF441AF6C21AB4816F014F92B6829
:10A58000DB0403F4002320F40022E6E701287FF433
:10A5900033AF0021A44816F006F92B685B0003F0E6
:10A5A000020320F002021A43002174E700283FF45E
:10A5B00046AF012C3FF429AE1EE750B96C219A48F2
:10A5C00016F0F1F84FF48073C0F3036043FA00F023
:10A5D0000DE701287FF410AF1B68102B23D00DDC92
:10A5E000022B1CD004DC012B16D04FF0FF3314E0FB
:10A5F000042B16D0082BF8D105230EE0402B14D0E5
:10A6000003DC202BF1D1032307E0802B0FD0B3F51F
:10A61000807FEAD1002300E008232B6008E00723B5
:10A62000FBE70623F9E70423F7E70223F5E72860B1
:10A630002B68013300F058826C217B4816F0B3F888
:10A640002B681B0603F0706320F0706285E7012819
:10A650007FF4D2AE6C21744816F0A5F82B68DB03AA
:10A6600003F4C03320F4C03277E730B96C216E4870
:10A6700016F099F8C0F38030B9E601287FF4BCAE3B
:10A680006C21694816F08FF82B689B0303F4804314
:10A6900020F4804261E730B96C21634816F083F8FA
:10A6A000C0F30030A3E601287FF4A6AE6C215E481B
:10A6B00016F079F82B681B0303F4805320F48052C2
:10A6C0004BE716F070F86C210646574816F06BF809
:10A6D0003205C0F3021001D428608DE640F0080076
:10A6E00085E601287FF488AE6C214F4816F05BF8B0
:10A6F00010F480444FF06C014B4808D016F053F82A
:10A700002B68DB0103F4F06320F4F06225E716F018
:10A710004AF86C21444816F046F82B6813F00803F9
:10A7200018BF4FF4006320F400621A436C213E48C6
:10A7300016F02BF86C213C4816F035F82B681B01FD
:10A7400003F0700320F070021A436C21364816F0B3
:10A750001CF84DE6E0B96C21334816F024F810F4EB
:10A7600080464FF06C01304804D016F01CF8C0F35E
:10A7700002103CE616F017F86C2104462A4816F041
:10A7800012F82305C0F3C31048BF40F00800A3E748
:10A7900001287FF431AE6C21234816F004F810F440
:10A7A00080444FF06C01204808D015F0FCFF2B6866
:10A7B0001B0103F0700320F07002CEE615F0F3FFEA
:10A7C0002B68DB0103F4F06320F4F062BCE730B9DE
:10A7D0006C21154815F0E7FF00F00F0007E601288F
:10A7E0007FF40AAE6C21104815F0DDFF2B6820F0D5
:10A7F0000F0203F00F03B0E630B96D210A4815F0DF
:10A80000D2FFC0F3C030F2E501287FF4F5AD6D2131
:10A81000054815F0C8FF2B68DB039BB220F400420B
:10A820001A436D2137E600BF0C38FF1F30B96D2188
:10A83000AE4815F0B8FFC0F34130D8E501287FF4E9
:10A84000DBAD6D21A94815F0AEFF2B685B0303F467
:10A85000C04320F4C042E3E701287FF4CDAD6D2171
:10A86000A24815F0A0FF2B681B0203F4706320F4CC
:10A870007062D5E730B96D219C4815F094FFC0F3A4
:10A880004110B4E501287FF4B7AD6D21974815F06C
:10A890008AFF2B685B0103F0600320F06002BFE7D2
:10A8A00008B96D2195E701287FF4A6AD6D218F4889
:10A8B00015F079FF2B6820F00F0203F00F03AFE7CC
:10A8C00001287FF499AD6D21884815F06CFF2B6845
:10A8D0001B0603F0807320F08072A1E768B96D2138
:10A8E000824815F060FF001400F07F0310F0400074
:10A8F00018BF6FF07F00184379E501287FF47CAD25
:10A900006D217A4815F04FFF2B681B0403F4FE03FA
:10A9100020F4FE0284E730B96C21744815F043FF3F
:10A92000C0F3404063E501287FF466AD6C216F48B9
:10A9300015F039FF2B685B0403F4003320F4003278
:10A940000BE618B9084615F0B5FB50E501287FF471
:10A9500053AD1968304615F04DFB4DE501287FF4E5
:10A960004BAD1968624B49B14FF0807292FBF1F226
:10A970009A42A8BF1A462A6014218CE51A46FAE7C3
:10A9800030B96C21594815F00EFFC0F340302EE568
:10A9900001287FF431AD6C21544815F004FF2B6879
:10A9A0005B0303F4005320F40052D6E530B96C2168
:10A9B0004E4815F0F8FEC0F3035018E501287FF467
:10A9C0001BAD6C21494815F0EEFE2B681B0503F406
:10A9D000700320F47002C0E510467DE601287FF484
:10A9E0000BAD1968424B49B14FF0807292FBF1F206
:10A9F0009A42A8BF1A462A6013214CE51A46FAE784
:10AA000030B97021394815F0CEFEC0F30720EEE4CE
:10AA100001287FF4F1AC7021344815F0C4FE2A6897
:10AA2000120220F47F4092B2024370212F4815F0A9
:10AA3000ACFE00212D4815F0B6FE2B68002B20F04F
:10AA40000402CCBF04230023ADE528B970212748B8
:10AA500015F0A9FEC0B2CAE401287FF4CDAC702184
:10AA6000224815F0A0FE2A7820F0FF000243702152
:10AA700011E501287FF4C0AC1B68032B34D870218A
:10AA80001A4815F090FE2B681B0403F4403320F4A1
:10AA900040321A43EBE708B970214BE501287FF4F7
:10AAA000ABAC7021114815F07EFE2B68002B20F412
:10AAB000802214BF4FF480230023EAE730B97021CD
:10AAC0000A4815F070FEC0F3015090E401287FF4AD
:10AAD00093AC7021054815F066FE2B681B0503F446
:10AAE000401320F44012D4E7102481E40C38FF1FF7
:10AAF000FFFF0F0007B5019239B9024601AB0120F3
:10AB0000FFF767FB03B05DF804FB0820FAE710B419
:10AB100013460446084619B9224610BCFFF759BB34
:10AB2000082010BC7047064B9B6A0846114613B1BB
:10AB3000044B9B6E1847044B1B68DB68FAE700BFA9
:10AB40001815FF1F6434FF1F903AFF1F2DE9F041D5
:10AB5000664D674BD5F880206648674F674C0121EA
:10AB600015F052FE6649634815F094FEFE6873685E
:10AB700003F16402A26003F59272226003F5A272EF
:10AB8000626003F5D272226203F5E272626203F53B
:10AB90005172E26003F5597203F56970226103F5A1
:10ABA000617203F57173E361336862611B69A061CF
:10ABB00098473368E0691B699847336860691B6987
:10ABC000984733682068DB68984733686068DB68BB
:10ABD00098473368A068DB68984733682069DB686A
:10ABE00098473368E068DB6898473368606ADB68D9
:10ABF00098473368206ADB6898473368606A9B69C6
:10AC000098473368206A9B699847336860699B69F5
:10AC100098473368E0689B6998473A69394B02F175
:10AC200014011960736803F50173936115F050FA0C
:10AC3000002394E80600184615F09AF9D5F88030FC
:10AC4000314AC3F80422314AC3F808220021012204
:10AC500059701A702E4BC5F88C302E4BC5F88830C1
:10AC60002D4BC5F884302D4BC5F890302C4BC5F8D2
:10AC7000A4302C4BC5F8A0302B4BC5F894302B4B8F
:10AC8000C5F898302A4BC5F8B4302A4BC5F8B03017
:10AC9000294BC5F8C030294BC5F8BC30284BC5F846
:10ACA000B830284BC5F8CC303223AB674FF4F07383
:10ACB0006B67254BC5F8C430AB6E85F87C2003B1BB
:10ACC000A2620220FFF722FA3368606ADB689847C5
:10ACD000606A1E4C0423437533681B6898472368D9
:10ACE0009847A3680020BDE8F04118476434FF1F6F
:10ACF000087D02000C38FF1F108D02001815FF1F81
:10AD0000A1A10000903AFF1FD5A00000CBA0000039
:10AD1000AFA00000C9A00000C5A00000C1A00000B5
:10AD20000FAB0000F5AA00009DA00000B5A1000037
:10AD300091A000007DA0000063A10000C59F00005D
:10AD40004DA100000DA10000499F00007409FF1FE4
:10AD5000194B70B5DD68194C2B6820685B69984702
:10AD60002B6860689B6898472B68A0689B68984729
:10AD70002B68E0689B6898472B6820699B68984718
:10AD80002B6860699B6898472B68A0699B68984707
:10AD90002B68E0699B6898472B68206A9B689847F6
:10ADA0002B6820689B68984715F0E0F9044BBDE8D4
:10ADB00070405B68184700BF108D02005015FF1FE0
:10ADC0007409FF1F10B51446052804D8DFE800F009
:10ADD000051614273237042010BD136844F620628C
:10ADE000934236D842F21172B3FBF2F002FB1030FC
:10ADF000194B80B29B689847002010BD174B146810
:10AE0000DB6858681B682CB1DB69002100F5F27023
:10AE10009847F1E79B6800F5F2709847ECE70F4B15
:10AE20001168DB680E4A1B685069DB69003118BF86
:10AE30000121EDE7084615F07BF82060DCE7074BC1
:10AE4000074ADB6858681B6800F592705061DB6840
:10AE5000E3E7102010BD00BF7409FF1F108D020032
:10AE60005015FF1F10B50348144615F096FD2060DD
:10AE700010BD00BF983AFF1F014815F080BD00BF0C
:10AE8000983AFF1F10B5044618B914F0F1FF204698
:10AE900010BD082010BD10B5044618B914F0DCFF31
:10AEA000204610BD082010BD0021F4E74942F2E71A
:10AEB000F1E7014815F0D3BD983AFF1F08B500200F
:10AEC00015F0C0F810B1084B987860B1074815F03C
:10AED000B1FD15F0FDF8064900238A684968184657
:10AEE00015F046F8012008BDC409FF1F983AFF1F5E
:10AEF0005015FF1F022804BF0B4B93F8D80030B940
:10AF00000A4BDB681B685B69094A1068184701280F
:10AF100009D1054B93F8D830012B04D1034BDB68E2
:10AF20001B689B69F0E770476434FF1F108D0200B7
:10AF30005015FF1F38B50D46044620B915F082F8AC
:10AF40002860204638BD082038BD10B501460D48A0
:10AF500015F09EFD002014F097FF002014F0E8FF8C
:10AF600010F008040DD182060BD56F21054815F0AD
:10AF700014FDC30105D520460221BDE8104014F0A0
:10AF8000AFBF10BD983AFF1F012903D1024A7021BB
:10AF900015F0F5BC704700BF1E000CC438B50C4658
:10AFA000054640B915F034F82368C11821602846D9
:10AFB000BDE8384066E7082038BDA62A70B50446CB
:10AFC0000E461D4600F0BA8200F28180172A00F07A
:10AFD000768130D8042A00F029810CD8012A00F0AB
:10AFE0000681C0F0F480022A00F00D81032A00F0EF
:10AFF00016810424F0E0072A00F045810ED8052AC6
:10B0000000F02381062AF4D1002840F02A81102183
:10B01000BC4815F0C2FCC0F30420DCE0082A00F0B4
:10B020004681152AE5D10028E3D0012840F0D880D8
:10B030001A68112123E11D2A00F0AC811CD81A2ABC
:10B0400000F06A8109D8182AD3D1002840F05E8127
:10B050003321AC4815F0A1FCBDE01B2A00F074813F
:10B060001C2AC6D1002840F085810146A54815F06C
:10B0700094FCC0F34000AEE0A32A00F0EA810ED8B1
:10B080008C2A00F08E81A22AB3D1002840F0D3810F
:10B090006C219C4815F081FCC0F3C1309BE0A42AD0
:10B0A00000F0ED81A52AA4D1002840F00E826C2189
:10B0B000944815F072FC10F4804F4FF06C019148E9
:10B0C00000F0F38115F069FCC0F3C31083E0B52AEA
:10B0D00000F02B833CD8AB2A00F0C08214D8A82AF9
:10B0E00000F07E82C0F06782A92A00F09382AA2A2B
:10B0F0007FF47FAF002840F0A3826D21814815F0D6
:10B100004CFCC0F3032066E0AE2A00F0DB820FD8CF
:10B11000AC2A00F0B982AD2A7FF46BAF002840F072
:10B12000C3826D21774815F038FCC0F3006052E00F
:10B13000B32A00F0E482B42A7FF45BAF002840F029
:10B140002C816F216F4815F028FCC0F3044042E0C9
:10B15000BB2A00F0498316D8B82A00F0058307D827
:10B16000B62A7FF446AF002840F0EC821421A8E014
:10B17000B92A00F00F83BA2A7FF43BAF002840F0D1
:10B18000218313219DE0C02A00F079830FD8BC2AC7
:10B1900000F04F83BF2A7FF42CAF002840F05D837E
:10B1A0007021584815F0F9FBC0F3014013E0CC2A98
:10B1B00000F07883CE2A7FF41CAF002840F0ED80A9
:10B1C0006F21504815F0E9FBC0F3090003E028B9EE
:10B1D000084614F029FF2860204670BD012801D0E0
:10B1E0000024F9E71968304614F042FEF8E718B970
:10B1F000084614F00DFFEEE70128F1D1196830463A
:10B2000014F0E0FEECE718B9084614F029FFE2E775
:10B210000128E5D11968304614F01EFEE0E7002849
:10B2200040F0BB80084614F00DFFD4E718B908467B
:10B2300014F032FFCFE70128D2D119680029B8BF36
:10B240004942304614F0CCFECAE718B9084614F05B
:10B2500015FFC0E70128C3D11968304614F0B7FFC5
:10B26000BEE70128BCD11021264815F096FB2B68BB
:10B270001B0203F4F85320F4F8521A43102121481A
:10B2800015F07DFBACE730B910211E4815F085FBA9
:10B2900000F01F009FE70128A2D11021194815F0E6
:10B2A0007CFB2B6820F01F0203F01F03E5E700285A
:10B2B00073D1084614F03CFEC0F300108BE778B958
:10B2C0001521104815F069FB0F4A002800F078821C
:10B2D0004FF0807393FBF0F09042A8BF1046EFE070
:10B2E00001287FF47DAF1968074B49B14FF0807298
:10B2F00092FBF1F29A42A8BF1A462A601521BEE7D6
:10B300001A46FAE7983AFF1FFFFF0F0001287FF463
:10B3100067AF1A683321B2E730B96C21BC4815F029
:10B320003CFBC0F3804056E701287FF459AF6C2105
:10B33000B74815F032FB2B689B0403F4802320F4FC
:10B3400080221A436C219AE730B96C21B04815F07D
:10B3500024FBC0F3C0403EE701287FF441AF6C21DD
:10B36000AB4815F01AFB2B68DB0403F4002320F430
:10B370000022E6E701287FF433AF0021A44815F04E
:10B380000CFB2B685B0003F0020320F002021A435F
:10B39000002174E700283FF446AF012C3FF429AEAA
:10B3A0001EE750B96C219A4815F0F7FA4FF48073F4
:10B3B000C0F3036043FA00F00DE701287FF410AFFB
:10B3C0001B68102B23D00DDC022B1CD004DC012BBE
:10B3D00016D04FF0FF3314E0042B16D0082BF8D111
:10B3E00005230EE0402B14D003DC202BF1D10323E6
:10B3F00007E0802B0FD0B3F5807FEAD1002300E077
:10B4000008232B6008E00723FBE70623F9E7042362
:10B41000F7E70223F5E728602B68013300F0588234
:10B420006C217B4815F0B9FA2B681B0603F070639A
:10B4300020F0706285E701287FF4D2AE6C21744859
:10B4400015F0ABFA2B68DB0303F4C03320F4C032F1
:10B4500077E730B96C216E4815F09FFAC0F3803061
:10B46000B9E601287FF4BCAE6C21694815F095FA65
:10B470002B689B0303F4804320F4804261E730B9DA
:10B480006C21634815F089FAC0F30030A3E6012867
:10B490007FF4A6AE6C215E4815F07FFA2B681B0383
:10B4A00003F4805320F480524BE715F076FA6C21B8
:10B4B0000646574815F071FA3205C0F3021001D460
:10B4C00028608DE640F0080085E601287FF488AE0C
:10B4D0006C214F4815F061FA10F480444FF06C0174
:10B4E0004B4808D015F059FA2B68DB0103F4F063E0
:10B4F00020F4F06225E715F050FA6C21444815F06D
:10B500004CFA2B6813F0080318BF4FF4006320F4C3
:10B5100000621A436C213E4815F031FA6C213C4818
:10B5200015F03BFA2B681B0103F0700320F070024A
:10B530001A436C21364815F022FA4DE6E0B96C2129
:10B54000334815F02AFA10F480464FF06C01304869
:10B5500004D015F022FAC0F302103CE615F01DFAF3
:10B560006C2104462A4815F018FA2305C0F3C310CD
:10B5700048BF40F00800A3E701287FF431AE6C21FA
:10B58000234815F00AFA10F480444FF06C0120486B
:10B5900008D015F002FA2B681B0103F0700320F0AD
:10B5A0007002CEE615F0F9F92B68DB0103F4F063C5
:10B5B00020F4F062BCE730B96C21154815F0EDF9C4
:10B5C00000F00F0007E601287FF40AAE6C21104856
:10B5D00015F0E3F92B6820F00F0203F00F03B0E63B
:10B5E00030B96D210A4815F0D8F9C0F3C030F2E542
:10B5F00001287FF4F5AD6D21054815F0CEF92B68D3
:10B60000DB039BB220F400421A436D2137E600BFF2
:10B61000983AFF1F30B96D21AE4815F0BEF9C0F35E
:10B620004130D8E501287FF4DBAD6D21A94815F044
:10B63000B4F92B685B0303F4C04320F4C042E3E792
:10B6400001287FF4CDAD6D21A24815F0A6F92B6835
:10B650001B0203F4706320F47062D5E730B96D21EA
:10B660009C4815F09AF9C0F34110B4E501287FF425
:10B67000B7AD6D21974815F090F92B685B0103F089
:10B68000600320F06002BFE708B96D2195E701284B
:10B690007FF4A6AD6D218F4815F07FF92B6820F05F
:10B6A0000F0203F00F03AFE701287FF499AD6D217E
:10B6B000884815F072F92B681B0603F0807320F0A0
:10B6C0008072A1E768B96D21824815F066F900140F
:10B6D00000F07F0310F0400018BF6FF07F001843A8
:10B6E00079E501287FF47CAD6D217A4815F055F994
:10B6F0002B681B0403F4FE0320F4FE0284E730B938
:10B700006C21744815F049F9C0F3404063E5012805
:10B710007FF466AD6C216F4815F03FF92B685B0430
:10B7200003F4003320F400320BE618B9084614F095
:10B73000C1FC50E501287FF453AD1968304614F080
:10B7400059FC4DE501287FF44BAD1968624B49B1B6
:10B750004FF0807292FBF1F29A42A8BF1A462A601B
:10B7600014218CE51A46FAE730B96C21594815F0D6
:10B7700014F9C0F340302EE501287FF431AD6C217F
:10B78000544815F00AF92B685B0303F4005320F4C6
:10B790000052D6E530B96C214E4815F0FEF8C0F3E2
:10B7A000035018E501287FF41BAD6C21494815F0C2
:10B7B000F4F82B681B0503F4700320F47002C0E555
:10B7C00010467DE601287FF40BAD1968424B49B164
:10B7D0004FF0807292FBF1F29A42A8BF1A462A609B
:10B7E00013214CE51A46FAE730B97021394815F0B3
:10B7F000D4F8C0F30720EEE401287FF4F1AC702107
:10B80000344815F0CAF82A68120220F47F4092B238
:10B81000024370212F4815F0B2F800212D4815F091
:10B82000BCF82B68002B20F00402CCBF04230023BB
:10B83000ADE528B97021274815F0AFF8C0B2CAE4C9
:10B8400001287FF4CDAC7021224815F0A6F82A78A3
:10B8500020F0FF000243702111E501287FF4C0AC05
:10B860001B68032B34D870211A4815F096F82B6802
:10B870001B0403F4403320F440321A43EBE708B9C9
:10B8800070214BE501287FF4ABAC7021114815F015
:10B8900084F82B68002B20F4802214BF4FF48023FF
:10B8A0000023EAE730B970210A4815F076F8C0F3B2
:10B8B000015090E401287FF493AC7021054815F005
:10B8C0006CF82B681B0503F4401320F44012D4E7F6
:10B8D000102481E4983AFF1FFFFF0F0007B5019283
:10B8E00039B9024601AB0120FFF767FB03B05DF8F1
:10B8F00004FB0820FAE710B413460446084619B9B9
:10B90000224610BCFFF759BB082010BC7047064BFD
:10B910005B6A0846114613B1044B9B6E1847044BF3
:10B920001B68DB68FAE700BF5015FF1F6434FF1F78
:10B93000943AFF1F2DE9F041624D634BD5F880200A
:10B940006248634F634C012115F058F862495F4823
:10B9500015F09AF8FE68736803F16402226003F53B
:10B960009272626003F5A272A26003F5E272E26075
:10B9700003F55172226103F5597203F56970626132
:10B9800003F5617203F5717323623368A2611B6969
:10B99000E06198473368206A1B6998473368A0695B
:10B9A0001B69984733682068DB689847336860688C
:10B9B000DB6898473368A068DB6898473368E068BD
:10B9C000DB68984733686069DB68984733682069AB
:10B9D000DB6898473368E0685B6998473368A0691B
:10B9E0009B699847336820699B69984770683368FA
:10B9F00000F5F270DB6898477068336800F5F27004
:10BA00009B6998473A69354B02F1140119607368D4
:10BA100003F50173936114F05BFB0023A268616876
:10BA2000184614F0A5FAD5F880302D4AC3F8042240
:10BA30002C4AC3F808220021012259701A702A4B9F
:10BA4000C5F88C30294BC5F88830294BC5F88430AF
:10BA5000284BC5F89030284BC5F8A430274BC5F8C3
:10BA6000A030274BC5F89430264BC5F89830264BAC
:10BA7000C5F8B430254BC5F8B030254BC5F8C030FB
:10BA8000244BC5F8BC30244BC5F8B830234BC5F85F
:10BA9000CC303223AB674FF4F0736B67204BC5F8A3
:10BAA000C430AB6E85F87C2003B162621D4C02206D
:10BAB000FFF720FA23689847A3680020BDE8F0410B
:10BAC000184700BF6434FF1F087F0200983AFF1F29
:10BAD000108D02005015FF1F89AF0000943AFF1F20
:10BAE000BDAE0000B3AE000097AE0000B1AE0000E6
:10BAF000ADAE0000A9AE0000F7B80000DDB8000050
:10BB000085AE00009DAF000079AE000065AE00007C
:10BB10004BAF0000C5AD000035AF0000F5AE000032
:10BB200051AD00007409FF1F014B00221A677047D6
:10BB30006434FF1FF7B505238DF8003061F07F03F3
:10BB40008DF8023013168DF8033013148DF804307D
:10BB50008DF8062013120E461546002401220721F7
:10BB60006846104F8DF805308DF8014014F06EFCDA
:10BB70003B688DF807009B6998473B681DF80400F7
:10BB80009B6801349847082CF7D1022011F0ECF99A
:10BB9000054B1B6826F0800603EB8606756003B034
:10BBA000F0BD00BF203DFF1F1C3DFF1FF0B5314B16
:10BBB00001F07F06334485B093F80C32DB0715465D
:10BBC00006D42D4B1B6803EB860673682B604FE091
:10BBD0000523012203218DF80430284C8DF80660DE
:10BBE000002301A88DF8053014F030FC23688DF88F
:10BBF00007009B699847236804211B690DEB01002E
:10BC0000984711F0ABF907462368DB699847072886
:10BC100029D9236808215B690DEB010098470122AF
:10BC2000072102A89DF80F4014F010FC84421FD198
:10BC30009DF80830052B1BD19DF80930FF2B17D13B
:10BC40009DF80A30B34213D19DF80C309DF80B20BB
:10BC50001B0443EA02639DF80E2013439DF80D2058
:10BC600043EA0223B2E7384611F088F90A28CBD913
:10BC700005B0F0BD243DFF1F1C3DFF1F203DFF1FF1
:10BC800008B5064B064A1B680146002014F076FFF3
:10BC90000020BDE8084014F0F7B800BF1C3DFF1FAE
:10BCA000243DFF1F38B51546044628B9084614F050
:10BCB0003FF92860204638BD042038BD10B5044641
:10BCC00018B914F0D5F8204610BD082010BD10B5E5
:10BCD000044618B914F0C0F8204610BD082010BD65
:10BCE0000021F4E74942F2E7F1E7024B186814F04B
:10BCF0005DBF00BF1C3DFF1F08B514F0E9F9064900
:10BD0000002318468A68496814F032F9034B186812
:10BD1000BDE8084014F041BF8415FF1F1C3DFF1F04
:10BD2000022804BF0B4B93F8D80030B90A4BDB68EC
:10BD30001B685B69094A10681847012809D1054B3F
:10BD400093F8D830012B04D1034BDB681B689B6947
:10BD5000F0E770476434FF1F108D02008415FF1F49
:10BD600038B50020FFF7DCFF114B124CDD6820686E
:10BD70002B689B6898472B6860689B6898472B687E
:10BD8000A0689B6898472B68E0689B6898472B6879
:10BD900020699B6898472B6860699B6898472B6867
:10BDA000A0699B689847BDE8384014F0DFB900BF30
:10BDB000108D02008415FF1F38B50C46054640B9AA
:10BDC00014F026F92368C11821602846BDE83840E0
:10BDD00074E7082038BD08B519BB052823D8DFE86B
:10BDE00000F003090E22131B1146002014F040F846
:10BDF000002008BD1146002014F0E4F8F8E71146D1
:10BE0000002014F029F8F3E782EAE271A1EBE27175
:10BE1000002014F0E5F8EBE71146002014F0D7F904
:10BE2000E6E7082008BD042008BD10B5144601BB94
:10BE3000052820D8DFE800F003090D1115190020AE
:10BE400014F0F2F82060002010BD002014F0E0F89B
:10BE5000F8E7002014F004F9F4E7002014F0F2F8F9
:10BE6000F0E7002014F018F9ECE7002014F006F9D0
:10BE7000E8E7082010BD042010BD5BE696E601222D
:10BE800070B511464B4E4C4C072014F081FA4B48CC
:10BE900014F03CFEF5686B6803F59272626003F57E
:10BEA000A272A26003F1C402E26003F1E40203F1B2
:10BEB0006400226103F18402A433A3612B686261F0
:10BEC000DB68206098472B686068DB6898472B68C0
:10BED000A068DB6898472B68E068DB6898472B68A8
:10BEE0002069DB6898472B6860691B6998472B6855
:10BEF000A0691B699847F56A2B689847304B314910
:10BF00001D60314BD3F880200A603049C2F804121A
:10BF1000002501262E4916705570C2F808122D4AC8
:10BF2000C3F88C202C4AC3F888202C4AC3F88420FC
:10BF30002B4AC3F890202B4AC3F8A4202A4AC3F8FE
:10BF4000A0202A4AC3F89420294AC3F89820294AF5
:10BF5000C3F8B420284AC3F8B020284AC3F8BC204C
:10BF6000274AC3F8CC20274AC3F8C82032229A6750
:10BF70004FF4C3725A67244AC3F8C420234A83F893
:10BF80007C60C3F8C02014F0A3F82B46A268616857
:10BF9000284613F0EDFF28464FF4484114F020F8EE
:10BFA00028464FF4484114F012F93046BDE870407D
:10BFB000B6E600BF108D02008415FF1F243DFF1F51
:10BFC000203DFF1F1C3DFF1F6434FF1FF9BC000014
:10BFD000EBBC0000CFBC0000E9BC0000E5BC0000E9
:10BFE000E1BC00002BBE0000D7BD0000BDBC0000BE
:10BFF000B9BD000035BB0000ADBB0000A5BC000012
:10C0000021BD000029BB000061BD000081BC000013
:10C01000014B00221A6770476434FF1FF7B50523F0
:10C020008DF8003061F07F038DF8023013168DF823
:10C03000033013148DF804308DF8062013120E46C9
:10C0400015460024012207216846104F8DF805305F
:10C050008DF8014014F0FAF93B688DF807009B69F0
:10C0600098473B681DF804009B6801349847082CEA
:10C07000F7D1022010F078FF054B1B6826F08006F0
:10C0800003EB8606756003B0F0BD00BF4042FF1FA2
:10C090004442FF1FF0B5314B01F07F06334485B0B9
:10C0A00093F80C32DB07154606D42D4B1B6803EBC7
:10C0B000860673682B604FE00523012203218DF86B
:10C0C0000430284C8DF80660002301A88DF8053057
:10C0D00014F0BCF923688DF807009B699847236822
:10C0E00004211B690DEB0100984710F037FF07464C
:10C0F0002368DB699847072829D9236808215B69E9
:10C100000DEB010098470122072102A89DF80F407E
:10C1100014F09CF984421FD19DF80830052B1BD1E7
:10C120009DF80930FF2B17D19DF80A30B34213D187
:10C130009DF80C309DF80B201B0443EA02639DF828
:10C140000E2013439DF80D2043EA0223B2E7384640
:10C1500010F014FF1428CBD905B0F0BDB03FFF1F7D
:10C160004442FF1F4042FF1F08B5064B064A1B68AA
:10C170000146002014F05EFD0020BDE8084013F0E9
:10C1800083BE00BF4442FF1FB03FFF1F38B51546B6
:10C19000044628B9084613F0CBFE2860204638BD77
:10C1A000042038BD10B5044618B913F061FE2046CE
:10C1B00010BD082010BD10B5044618B913F04CFE90
:10C1C000204610BD082010BD0021F4E74942F2E7E7
:10C1D000F1E7024B186814F045BD00BF4442FF1F51
:10C1E00008B513F075FF0649002318468A684968A8
:10C1F00013F0BEFE034B1868BDE8084014F029BDDB
:10C20000AC15FF1F4442FF1F022804BF0B4B93F8DD
:10C21000D80030B90A4BDB681B685B69094A1068B3
:10C220001847012809D1054B93F8D830012B04D1C8
:10C23000034BDB681B689B69F0E770476434FF1FA2
:10C24000108D0200AC15FF1F70B5144E144C002069
:10C25000FFF7DAFFF56820682B689B6898472B6822
:10C2600060689B6898472B68A0689B6898472B6814
:10C27000E0689B6898472B6820699B6898472B6803
:10C2800060699B6898472B68A0699B689847F36A28
:10C290005B689847BDE8704013F068BF108D0200DE
:10C2A000AC15FF1F38B50C46054640B913F0B0FE7B
:10C2B0002368C11821602846BDE8384072E708208D
:10C2C00038BD08B519BB052823D8DFE800F00309FD
:10C2D0000E22131B1146002013F0CAFD002008BDDA
:10C2E0001146002013F06EFEF8E71146002013F00F
:10C2F000B3FDF3E782EAE271A1EBE271002013F0F3
:10C300006FFEEBE71146002013F061FFE6E708201F
:10C3100008BD042008BD10B5144601BB052820D86F
:10C32000DFE800F003090D111519002013F07CFE61
:10C330002060002010BD002013F06AFEF8E7002006
:10C3400013F08EFEF4E7002013F07CFEF0E70020EF
:10C3500013F0A2FEECE7002013F090FEE8E70820BF
:10C3600010BD042010BD59E694E6012270B51146B7
:10C370004B4E4C4C072014F00BF84B4814F020FCAB
:10C38000F5686B6803F59272626003F5A272A260B1
:10C3900003F1C402E26003F1E40203F164002261EC
:10C3A00003F18402A433A3612B686261DB6820601F
:10C3B00098472B686068DB6898472B68A068DB6843
:10C3C00098472B68E068DB6898472B682069DB6832
:10C3D00098472B6860691B6998472B68A0691B699F
:10C3E0009847F56A2B689847304B31491D60314BAF
:10C3F000D3F880200A603049C2F8041200250126D3
:10C400002E4916705570C2F808122D4AC3F88C20B8
:10C410002C4AC3F888202C4AC3F884202B4AC3F83E
:10C4200090202B4AC3F8A4202A4AC3F8A0202A4A05
:10C43000C3F89420294AC3F89820294AC3F8B420A5
:10C44000284AC3F8B020284AC3F8BC20274AC3F8BA
:10C45000CC20274AC3F8C82032229A674FF4C3720F
:10C460005A67244AC3F8C420234A83F87C60C3F87F
:10C47000C02013F02DFE2B46A2686168284613F0F9
:10C4800077FD28464FF4484113F0AAFD28464FF4A3
:10C49000484113F09CFE3046BDE87040B4E600BF52
:10C4A000108D0200AC15FF1FB03FFF1F4042FF1F61
:10C4B0004442FF1F6434FF1FE1C10000D3C10000EC
:10C4C000B7C10000D1C10000CDC10000C9C100004A
:10C4D00017C30000C3C20000A5C10000A5C2000030
:10C4E0001DC0000095C000008DC1000009C2000001
:10C4F00011C0000049C2000069C10000012810B548
:10C5000014460CD003D3022810D0042010BD1368A9
:10C51000094AB3FA83F35B099372002010BD1368D4
:10C52000064AB3FA83F35B091360F6E7084613F093
:10C53000FFFC2060F1E700BF4842FF1F6C00FF1FB7
:10C5400010B5044618B913F093FC204610BD08201E
:10C5500010BD024B186814F024BC00BF9442FF1FAA
:10C56000022804BF0B4B93F8D80030B90A4BDB68A4
:10C570001B685B69094AD0681847012809D1054B37
:10C5800093F8D830012B04D1034BDB681B689B69FF
:10C59000F0E770476434FF1F108D0200D415FF1FB1
:10C5A00038B50020FFF7DCFF0F4B104CDD68E0686A
:10C5B0002B685B6998472B6820689B6898472B68B5
:10C5C000A0689B6898472B68E0689B6898472B6831
:10C5D00020699B6898472B6860689B689847BDE80E
:10C5E000384013F0C3BD00BF108D0200D415FF1FEB
:10C5F00038B50D46044620B913F024FD28602046C6
:10C6000038BD082038BD38B50C46054640B913F092
:10C61000FFFC2368C11821602846BDE838408FE739
:10C62000082038BD10B5044630B9044B5872187252
:10C6300013F012FC204610BD082010BD4842FF1F19
:10C640000021EFE74942EDE7ECE738B5002013F0B1
:10C65000F9FC0546A8B90C4B0C48196814F084FB8A
:10C660000B4B012402201C60FFF77AFF13F030FD12
:10C67000084928460B698A68496813F079FC204606
:10C6800038BD002038BD00BF9442FF1F4842FF1F45
:10C690006C00FF1FD415FF1F2DE9F843830C0446DF
:10C6A0000DD0C0F34243062B09D1294B5A7A20F012
:10C6B0001F04002A43D01B7803F01F031C43254F9F
:10C6C000254E264D3B68D6F8008095F818909B685B
:10C6D0000021C4F3074098472A7E336808EB890895
:10C6E00003EB8203C8F804005A6812025A603B68E0
:10C6F00000219B68C4F3072098472B7E326802EB29
:10C7000083020121536818433B68000250609B6814
:10C71000E0B298473268297E02EB81014B681843EA
:10C720000011A30C486010610BD0C4F34243072BE7
:10C7300002D1C4F30111297643F0080302E0DB7A49
:10C74000BAE7082302EB83035C60BDE8F88300BF0F
:10C750004842FF1F9042FF1F9442FF1FD415FF1F46
:10C760000D4B00F077021B6842F0080230B4062837
:10C770000A4D03EB8203C1F3130404BF01F01F0150
:10C78000E9725C60AB7A23B944EA404030BCFFF701
:10C7900083BF30BC704700BF9442FF1F4842FF1F59
:10C7A00008461146DCE738B504460F2000F014F8BF
:10C7B0000323B4FBF3F303EB4303E41A240105461C
:10C7C00004F0300420F030002043FFF765FF2846D6
:10C7D000BDE83840FFF760BF10B5084B9B7A0446B0
:10C7E0001BB9030701D4FFF7DEFF054B1B6804F0FC
:10C7F0007F0403EB8404606810BD00BF4842FF1F44
:10C800009442FF1FA82A38B504461D46084600F08A
:10C81000F0815CD81D2A00F0D68022D8042A00F0CE
:10C82000DB800CD8012A00F0BA80C0F0AA80022A6E
:10C8300000F0BF80032A00F0C6800424A5E0062A89
:10C8400000F0E180C0F0D580072A00F0F280082ACD
:10C85000F3D1002C40F0BC8013F06AFBC0F3001051
:10C8600092E0A32A00F069811ED8A02A00F02E8150
:10C870000CD88C2AE1D1002C40F0EB800820FFF787
:10C88000ABFF00F00F00C0F108007DE0A12A00F02E
:10C890003181A22AD1D1002C40F040810C20FFF739
:10C8A0009BFFC0F3C1306FE0A52A00F06E81C0F09D
:10C8B0005881A62A00F07D81A72ABED1002C40F025
:10C8C0008C810C20FFF788FF00F00F005CE0B22A9B
:10C8D00000F0558225D8AD2A00F0EA810ED8AA2AA8
:10C8E00000F0B281C0F09C81AB2A00F0C181AC2A7B
:10C8F000A3D1002C40F0D0810520E3E7AF2A00F05F
:10C900000882C0F0EB81B02A00F01882B12A94D1DD
:10C91000002C40F027820720FFF75EFFC0F3802045
:10C9200032E0B72A00F06E8210D8B42A00F04F82AD
:10C93000C0F03982B52A00F05382B62A7FF47DAF69
:10C94000002C40F05882AE4B1B695FE0CE2A00F00D
:10C950008D820AD8B82A00F06882B92A7FF46DAFB8
:10C96000002C40F076820720A4E1D02A00F09182CA
:10C97000D62A7FF462AF002C40F09382A04B5B6814
:10C9800044E024B913F050FB2860204638BD012C48
:10C9900001D00024F9E7196813F06AFAF9E714B92D
:10C9A00013F036FBF0E7012CF3D1196813F00AFB02
:10C9B000EFE714B913F054FBE6E7012CE9D119684D
:10C9C00013F04AFAE5E71CB913F03CFB2860E0E7F6
:10C9D000012C3FF432AFDCE714B913F05DFBD3E771
:10C9E000012CD6D119680029B8BF494213F0F8FAD2
:10C9F000CFE714B913F042FBC6E7012CC9D119687F
:10CA000013F0E5FBC5E71CB97D4BDB7A2B60BCE777
:10CA1000012CBED17A4C1B68E3720020FFF7DCFECC
:10CA20000206B6D4E17A01F01F010620FFF798FE56
:10CA3000AFE714B9724B1B78E8E7012CA9D1704C11
:10CA40001B6823700020FFF7C7FE0306A1D52178DD
:10CA5000E9E7012C9DD11B68102B23D00DDC022BA4
:10CA60001CD004DC012B16D04FF0FF3314E0042B54
:10CA700016D0082BF8D105230EE0402B14D003DC90
:10CA8000202BF1D1032307E0802B0FD0B3F5807F5B
:10CA9000EAD1002300E008232B6008E00723FBE72E
:10CAA0000623F9E70423F7E70223F5E72C602B6858
:10CAB000013300F0FC810820FFF78EFE2B6820F088
:10CAC0000F0103F00F0319430820AFE72CB908202A
:10CAD000FFF782FEC0F3402056E7012C7FF459AFE8
:10CAE0000820FFF779FE2B685B0203F4007320F443
:10CAF0000071E8E72CB90820FFF76EFEC0F30020B4
:10CB000042E7012C7FF445AF0820FFF765FE2B6854
:10CB10001B0203F4807320F48071D4E7012C7FF4AE
:10CB200038AF0C20FFF758FE2B68DB0303F4C0334B
:10CB300020F4C03119430C2078E72CB90C20FFF702
:10CB40004BFEC0F380301FE7012C7FF422AF0C2096
:10CB5000FFF742FE2B689B0303F4804320F48041DF
:10CB6000E8E72CB90C20FFF737FEC0F3C1200BE734
:10CB7000012C7FF40EAF0C20FFF72EFE2B68DB029A
:10CB800003F4C05320F4C051D4E72CB90C20FFF7B4
:10CB900023FEC0F3C310F7E6012C7FF4FAAE0C209D
:10CBA000FFF71AFE2B68DB0103F4F06320F4F06159
:10CBB000C0E72CB90C20FFF70FFEC0F30210E3E62C
:10CBC000012C7FF4E6AE0C20FFF706FE2B681B015C
:10CBD00003F0700320F07001ACE7012C7FF4D9AEB4
:10CBE0000C20FFF7F9FD2B6820F00F0103F00F0375
:10CBF000A0E73CB90520FFF7EFFDC0F3C030C3E666
:10CC00004842FF1F012C7FF4C4AE0D20FFF7E4FD66
:10CC10002B68DB039BB220F4004119430D2005E78C
:10CC20002CB90520FFF7D8FDC0F34130ACE6012C4C
:10CC30007FF4AFAE0D20FFF7CFFD2B685B0303F44D
:10CC4000C04320F4C041E8E72CB90520FFF7C4FD3C
:10CC5000C0F3032098E6012C7FF49BAE0D20FFF774
:10CC6000BBFD2B681B0203F4706320F47061D4E7F2
:10CC70002CB90520FFF7B0FDC0F3411084E6012C6C
:10CC80007FF487AE0D20FFF7A7FD2B685B0103F053
:10CC9000600320F06001C0E7012C7FF47AAE0D2024
:10CCA000FFF79AFD2B6820F00F0103F00F03B4E7A4
:10CCB0002CB90620FFF790FDC0F3004064E6012C7C
:10CCC0007FF467AE0E20FFF787FD2B681B0403F48B
:10CCD000803320F4803119430E20A7E664B9062082
:10CCE000FFF77AFD000A00F07F0310F0400018BF44
:10CCF0006FF07F00184347E6012C7FF44AAE0E2008
:10CD0000FFF76AFD2B681B0203F4FE4320F4FE418B
:10CD1000E1E72CB90720FFF75FFDC0F3813033E670
:10CD2000012C7FF436AE0F20FFF756FD2B689B03D6
:10CD30009BB220F4404119430F2077E62CB907201D
:10CD4000FFF74AFDC0F301301EE6012C7FF421AE4F
:10CD50000F20FFF741FD2B681B0303F4405320F421
:10CD60004051E8E7012C7FF414AE0F20FFF734FDAB
:10CD70002B689B0203F4806320F48061DBE72CB90D
:10CD80000720FFF729FDC0F30120FDE5012C7FF40A
:10CD900000AE0F20FFF720FD2B681B0203F4407349
:10CDA00020F44071C7E72CB90720FFF715FDC0F349
:10CDB0008010E9E5012C7FF4ECAD0F20FFF70CFDAE
:10CDC0002B689B0103F0400320F04001B3E7002CE7
:10CDD0007FF4FEAD0220FFF7FFFCC0F38420D3E513
:10CDE00014B913F067F9CFE5012C7FF4D2AD1968BF
:10CDF00013F000F9CDE5012C7FF4CBAD1A682D4B73
:10CE00001A61C6E52CB90720FFF7E6FCC0F3C01095
:10CE1000BAE5012C7FF4BDAD0F20FFF7DDFC2B68D8
:10CE2000DB01DBB220F0800185E72CB90420FFF79D
:10CE3000D3FCC0F34030A7E5012C7FF4AAAD0C2051
:10CE4000FFF7CAFC2B685B0303F4005320F4005186
:10CE500070E6012C7FF49DAD0F20FFF7BDFC2B6821
:10CE60001B0403F4803320F4803164E7002C7FF44A
:10CE7000AFAD114B1B6833B10220FFF7ADFC800A48
:10CE800000F47870A2E50120FFF7A6FCC0F389202A
:10CE90009CE5002C7FF49CAD0320FFF79DFCC0B205
:10CEA00072E5012C02BF1A68024B5A6071E510242A
:10CEB0006BE500BF4842FF1F6C00FF1F07B50192E2
:10CEC00039B9024601AB0120FFF79CFC03B05DF8C5
:10CED00004FB0820FAE710B413460446084611B9CB
:10CEE000224610BC8EE4082010BC704710B50846DE
:10CEF0001446FFF771FC206010BDF8B5064600200F
:10CF0000FFF76AFC284D294C6B7EC0F3C017BB426B
:10CF100008D0002F3ED0217801F01F010620FFF736
:10CF20001FFC6F76237A224A002B35D0136F43F013
:10CF30000103617A002933D043F002030020136714
:10CF400013F080F82369AA7E0028B8BF40429842B7
:10CF500034BF00270127BA4210D098424FF00D008D
:10CF60002CBF647B247BFFF737FC04F00F0420F018
:10CF70000F0121430D20FFF7F3FBAF760D4B0B4A5A
:10CF80001B683146002013F09AFE0020BDE8F840EF
:10CF900012F07ABFE17ABFE7136F23F00103C8E70D
:10CFA00023F00203CAE700BFD415FF1F4842FF1F4A
:10CFB0006434FF1F9442FF1F10B406290C4C0D4B24
:10CFC000C2F3130004BF02F01F02E2721B6801F0FB
:10CFD000770242F0080203EB82035860A37A23B978
:10CFE00040EA414010BCFFF757BB10BC704700BF80
:10CFF0004842FF1F9442FF1F10B5084B9B7A0C4616
:10D0000023B90B0702D40846FFF7CDFB044B196880
:10D0100004F07F0401EB8404606810BD4842FF1FE8
:10D020009442FF1F2DE9F8438B0C0C460DD0C1F341
:10D030004243062B09D1294B5A7A21F01F04002ABA
:10D0400043D01B7803F01F031C43254F254E264D6C
:10D050003B68D6F8008095F81B909B680021C4F3CC
:10D0600007409847EA7E336808EB890803EB8203A0
:10D07000C8F804005A6812025A603B6800219B6895
:10D08000C4F307209847EB7E326802EB830201214C
:10D09000536818433B68000250609B68E0B29847B1
:10D0A0003268E97E02EB81014B6818430011A30C42
:10D0B000486010610BD0C4F34243072B02D1C4F384
:10D0C0000111E97643F0080302E0DB7ABAE70823AE
:10D0D00002EB83035C60BDE8F88300BF4842FF1F9A
:10D0E0009042FF1F9442FF1FD415FF1F2DE9F0410E
:10D0F000454E464BDFF86C81454C012730461F609A
:10D1000013F0BAFDD8F80C506B6803F16402E260CA
:10D1100003F1840203F59270226103F5A27203F514
:10D12000017323602B68A260DB68606098472B68FE
:10D13000A068DB6898472B68E068DB6898472B6835
:10D1400020691B6998472B682068DB689847D8F8E6
:10D150001030304A03F11401116022689A610523EE
:10D1600033704FF47A73736012F0B2FF2369A268D0
:10D170006168002012F0FCFE274B2849D3F880207C
:10D180000A602749C2F808122649C2F80412002191
:10D1900051701170244AC3F88C20244AC3F88820A7
:10D1A000234AC3F88420234AC3F89020224AC3F8B4
:10D1B000A420224AC3F8A020214AC3F89420214A7F
:10D1C000C3F89820204AC3F8B420204AC3F8B020FE
:10D1D0001F4AC3F8C0201F4AC3F8BC201E4AC3F828
:10D1E000B8201E4AC3F8CC20322283F87C709A679C
:10D1F0004FF416725A670220194AC3F8C420BDE8DA
:10D20000F041FFF7ADB900BF4842FF1F6C00FF1FA0
:10D21000D415FF1F9042FF1F6434FF1F9442FF1F6D
:10D2200053C500004BC6000025C6000049C60000DB
:10D2300045C6000041C60000D7CE0000BDCE0000AC
:10D2400041C5000007C60000A1C70000EDCE0000E8
:10D25000FBCE0000FDC40000F1C5000061C5000068
:10D26000A1C50000108D02002DE9F843830C04468F
:10D270000DD0C0F34243062B09D1294B5A7A20F036
:10D280001F04002A43D01B7803F01F031C43254FC3
:10D29000254E264D3B68D6F8008095F800909B6897
:10D2A0000021C4F3074098472A78336808EB8908BF
:10D2B00003EB8203C8F804005A6812025A603B6804
:10D2C00000219B68C4F3072098472B78326802EB53
:10D2D00083020121536818433B68000250609B6839
:10D2E000E0B298473268297802EB81014B68184315
:10D2F0000011A30C486010610BD0C4F34243072B0C
:10D3000002D1C4F30111297043F0080302E0DB7A73
:10D31000BAE7082302EB83035C60BDE8F88300BF33
:10D320009C42FF1F9842FF1FE442FF1FFC15FF1F96
:10D33000012810B514460CD003D3022810D00420C5
:10D3400010BD1368094AB3FA83F35B099372002096
:10D3500010BD1368064AB3FA83F35B091360F6E75E
:10D36000084612F0E5FD2060F1E700BF9C42FF1F78
:10D370007000FF1F10B5044618B912F079FD204661
:10D3800010BD082010BD024B186813F0BCBD00BFD3
:10D39000E442FF1F022804BF0B4B93F8D80030B9BA
:10D3A0000A4BDB681B685B69094A1069184701284A
:10D3B00009D1054B93F8D830012B04D1034BDB681E
:10D3C0001B689B69F0E770476434FF1F108D0200F3
:10D3D000FC15FF1F38B50020FFF7DCFF0F4B104C8A
:10D3E000DD6820692B685B6998472B6860689B68DB
:10D3F00098472B68E0689B6898472B6820699B6872
:10D4000098472B6860699B6898472B68A0689B6861
:10D410009847BDE8384012F0A9BE00BF108D020049
:10D42000FC15FF1F38B50D46044620B912F00AFE60
:10D430002860204638BD082038BD38B50C46054662
:10D4400040B912F0E5FD2368C11821602846BDE807
:10D4500038408FE7082038BD10B5044630B9044B7A
:10D460005872187212F0F8FC204610BD082010BD4A
:10D470009C42FF1F0021EFE74942EDE7ECE738B59A
:10D48000002012F0DFFD0546A8B90C4B0C481968C6
:10D4900013F01CFD0B4B012402201C60FFF77AFFE8
:10D4A00012F016FE084928464B69CA68896812F0CE
:10D4B0005FFD204638BD002038BD00BFE442FF1F9D
:10D4C0009C42FF1F7000FF1FFC15FF1F0346C1F3A6
:10D4D0001300820C10B40B4C05D04214062A04BF72
:10D4E00001F01F01E172084A03F07703126843F06C
:10D4F000080302EB83035860A37A0BB910BCB3E6B0
:10D5000010BC70479C42FF1FE442FF1F08461146B3
:10D51000DCE710B5074B9B7A04461BB9030701D41F
:10D5200000F0D6FB044B1B6804F07F0403EB84047B
:10D53000606810BD9C42FF1FE442FF1FA82A38B557
:10D5400004461D46084600F0F3815CD81D2A00F011
:10D55000D78022D8042A00F0DC800CD8012A00F001
:10D56000BB80C0F0AB80022A00F0C080032A00F02C
:10D57000C7800424A6E0062A00F0E280C0F0D6802E
:10D58000072A00F0F380082AF3D1002C40F0BD8078
:10D5900012F0CEFCC0F3001093E0A32A00F06A81E1
:10D5A0001ED8A02A00F02F810CD88C2AE1D1002CA3
:10D5B00040F0EC800820FFF7ACFF00F00F00C0F156
:10D5C00008007EE0A12A00F03281A22AD1D1002CED
:10D5D00040F041810C20FFF79CFFC0F3C13070E0A8
:10D5E000A52A00F06F81C0F05981A62A00F0808141
:10D5F000A72ABED1002C40F08F810C20FFF789FFB5
:10D6000000F00F005DE0B22A00F0518226D8AD2A6A
:10D6100000F0E6810FD8AA2A00F0B381C0F09D8106
:10D62000AB2A00F0C281AC2AA3D1002C40F0D181FA
:10D63000AE4B5B7B87E0AF2A00F00382C0F0E6814F
:10D64000B02A00F01382B12A93D1002C40F022823C
:10D650000720FFF75EFFC0F3802032E0B72A00F01A
:10D66000698210D8B42A00F04A82C0F03482B52A08
:10D6700000F04E82B62A7FF47CAF002C40F053823B
:10D680009A4B1B695FE0CE2A00F088820AD8B82A3C
:10D6900000F06382B92A7FF46CAF002C40F07182F5
:10D6A00007209FE1D02A00F08C82D62A7FF461AF58
:10D6B000002C40F08E828D4B5B6844E024B912F060
:10D6C000B3FC2860204638BD012C01D00024F9E7C6
:10D6D000196812F0CDFBF9E714B912F099FCF0E7E4
:10D6E000012CF3D1196812F06DFCEFE714B912F0B8
:10D6F000B7FCE6E7012CE9D1196812F0ADFBE5E7CC
:10D700001CB912F09FFC2860E0E7012C3FF431AF18
:10D71000DCE714B912F0C0FCD3E7012CD6D11968AC
:10D720000029B8BF494212F05BFCCFE714B912F0F0
:10D73000A5FCC6E7012CC9D1196812F048FDC5E760
:10D740001CB96A4BDB7A2B60BCE7012CBED1674C5D
:10D750001B68E3720020FFF7DCFE0206B6D4E17A14
:10D7600001F01F010620FFF7B1FEAFE714B95F4BD0
:10D770001B78E8E7012CA9D15C4C1B6823700020C2
:10D78000FFF7C7FE0306A1D52178E9E7012C9DD15B
:10D790001B68102B23D00DDC022B1CD004DC012BCA
:10D7A00016D04FF0FF3314E0042B16D0082BF8D11D
:10D7B00005230EE0402B14D003DC202BF1D10323F2
:10D7C00007E0802B0FD0B3F5807FEAD1002300E083
:10D7D00008232B6008E00723FBE70623F9E704236F
:10D7E000F7E70223F5E72C602B68013300F0F7819F
:10D7F0000820FFF78EFE2B6820F00F0103F00F03C7
:10D8000019430820AFE72CB90820FFF782FEC0F3C8
:10D81000402056E7012C7FF459AF0820FFF779FE2E
:10D820002B685B0203F4007320F40071E8E72CB965
:10D830000820FFF76EFEC0F3002042E7012C7FF4C2
:10D8400045AF0820FFF765FE2B681B0203F48073C9
:10D8500020F48071D4E7012C7FF438AF0C20FFF75F
:10D8600058FE2B68DB0303F4C03320F4C0311943A6
:10D870000C2078E72CB90C20FFF74BFEC0F380306A
:10D880001FE7012C7FF422AF0C20FFF742FE2B682C
:10D890009B0303F4804320F48041E8E72CB90C207B
:10D8A000FFF737FEC0F3C1200BE7012C7FF40EAF6A
:10D8B0000C20FFF72EFE2B68DB0203F4C05320F48C
:10D8C000C051D4E72CB90C20FFF723FEC0F3C310DE
:10D8D000F7E6012C7FF4FAAE0C20FFF71AFE2B6856
:10D8E000DB0103F4F06320F4F061C0E79C42FF1F0A
:10D8F0002CB90C20FFF70DFEC0F30210E1E6012C5D
:10D900007FF4E4AE0C20FFF704FE2B681B0103F04C
:10D91000700320F07001AAE7012C7FF4D7AE0C2031
:10D92000FFF7F7FD2B6820F00F0103F00F039EE7D0
:10D930002CB90520FFF7EDFDC0F3C030C1E6012C86
:10D940007FF4C4AE0D20FFF7E4FD2B68DB039BB230
:10D9500020F4004119430D2005E72CB90520FFF7FD
:10D96000D8FDC0F34130ACE6012C7FF4AFAE0D2002
:10D97000FFF7CFFD2B685B0303F4C04320F4C041E5
:10D98000E8E72CB90520FFF7C4FDC0F3032098E6B3
:10D99000012C7FF49BAE0D20FFF7BBFD2B681B0213
:10D9A00003F4706320F47061D4E72CB90520FFF70D
:10D9B000B0FDC0F3411084E6012C7FF487AE0D204A
:10D9C000FFF7A7FD2B685B0103F0600320F0600107
:10D9D000C0E7012C7FF47AAE1A68824B5A7375E661
:10D9E0002CB90620FFF795FDC0F3004069E6012C35
:10D9F0007FF46CAE0E20FFF78CFD2B681B0403F444
:10DA0000803320F4803119430E20ACE664B906203F
:10DA1000FFF77FFD000A00F07F0310F0400018BF01
:10DA20006FF07F0018434CE6012C7FF44FAE0E20C0
:10DA3000FFF76FFD2B681B0203F4FE4320F4FE4149
:10DA4000E1E72CB90720FFF764FDC0F3813038E629
:10DA5000012C7FF43BAE0F20FFF75BFD2B689B038F
:10DA60009BB220F4404119430F207CE62CB90720DB
:10DA7000FFF74FFDC0F3013023E6012C7FF426AE03
:10DA80000F20FFF746FD2B681B0303F4405320F4DF
:10DA90004051E8E7012C7FF419AE0F20FFF739FD64
:10DAA0002B689B0203F4806320F48061DBE72CB9D0
:10DAB0000720FFF72EFDC0F3012002E6012C7FF4C2
:10DAC00005AE0F20FFF725FD2B681B0203F4407302
:10DAD00020F44071C7E72CB90720FFF71AFDC0F307
:10DAE0008010EEE5012C7FF4F1AD0F20FFF711FD62
:10DAF0002B689B0103F0400320F04001B3E7002CAA
:10DB00007FF403AE0220FFF704FDC0F38420D8E5C4
:10DB100014B912F0CFFAD4E5012C7FF4D7AD19680F
:10DB200012F068FAD2E5012C7FF4D0AD1A682D4BC3
:10DB30001A61CBE52CB90720FFF7EBFCC0F3C0104E
:10DB4000BFE5012C7FF4C2AD0F20FFF7E2FC2B688C
:10DB5000DB01DBB220F0800185E72CB90420FFF760
:10DB6000D8FCC0F34030ACE5012C7FF4AFAD0C2005
:10DB7000FFF7CFFC2B685B0303F4005320F4005144
:10DB800075E6012C7FF4A2AD0F20FFF7C2FC2B68D5
:10DB90001B0403F4803320F4803164E7002C7FF40D
:10DBA000B4AD114B1B6833B10220FFF7B2FC800A01
:10DBB00000F47870A7E50120FFF7ABFCC0F38920E3
:10DBC000A1E5002C7FF4A1AD0320FFF7A2FCC0B2B9
:10DBD00077E5012C02BF1A68024B5A6076E51024E3
:10DBE00070E500BF9C42FF1F7000FF1F07B5019248
:10DBF00039B9024601AB0120FFF7A0FC03B05DF884
:10DC000004FB0820FAE710B508461446FFF781FC2C
:10DC1000206010BDF8B506460020FFF77AFC284DBD
:10DC2000284C2B7FC0F3C017BB4208D0002F3ED03A
:10DC3000217801F01F010620FFF748FC2F77237A97
:10DC4000214A002B35D0136F43F00103617A00297C
:10DC500033D043F002030020136712F0F3F9236975
:10DC60006A7F0028B8BF4042984234BF002701278E
:10DC7000BA4210D098424FF00D002CBF647B247B39
:10DC8000FFF747FC04F00F0420F00F0121430D20A3
:10DC9000FFF71CFC6F770D4B0A4A1B6831460020CA
:10DCA00013F0BFF80020BDE8F84012F0EDB8E17ABB
:10DCB000BFE7136F23F00103C8E723F00203CAE7AD
:10DCC000FC15FF1F9C42FF1F6434FF1FE442FF1F2F
:10DCD00038B504460F20FFF71CFC0323B4FBF3F315
:10DCE00003EB4303E41A2401054604F0300420F05A
:10DCF00030002043FFF7B8FA2846BDE83840FFF768
:10DD0000B3BA10B413460446084611B9224610BCF3
:10DD100014E4082010BC7047C2F31300830C10B445
:10DD20000B4C05D04314062B04BF02F01F02E27215
