:100000000000012065020200FDCC0100FDCC0100D2
:10001000FDCC0100FDCC0100FDCC01000000000082
:10002000000000000000000000000000FDCC010006
:10003000FDCC010000000000FDCC01000D560100C8
:10004000FDCC0100FDCC0100FDCC0100FDCC010088
:10005000FDCC0100FDCC0100FDCC0100FDCC010078
:10006000FDCC0100FDCC0100FDCC0100FDCC010068
:10007000FDCC0100FDCC0100FDCC0100FDCC010058
:10008000FDCC0100FDCC0100FDCC0100FDCC010048
:10009000FDCC0100FDCC0100FDCC0100FDCC010038
:1000A000FDCC0100FDCC0100FDCC0100FDCC010028
:1000B000FDCC0100FDCC0100FDCC0100FDCC010018
:1000C000FDCC0100FDCC0100FDCC0100FDCC010008
:1000D000FDCC0100FDCC0100FDCC0100FDCC0100F8
:1000E000FDCC0100FDCC0100FDCC0100FDCC0100E8
:1000F000FDCC010051680100FDCC0100FDCC0100E8
:10010000FDCC0100E16C0100FDCC0100FDCC010043
:10011000FDCC01002D660100FDCC0100FDCC0100ED
:10012000FDCC0100FDCC0100FDCC0100FDCC0100A7
:10013000FDCC0100FDCC0100FDCC0100918301004C
:10014000AD780100FDCC0100FDCC0100FDCC01002B
:10015000FDCC0100FDCC0100FDCC0100FDCC010077
:10016000FDCC0100F5DF0100FDCC0100FDCC01005C
:10017000FDCC0100FDCC0100FDCC0100FDCC010057
:10018000FDCC0100FDCC0100FDCC0100FDCC010047
:10019000FDCC0100FDCC0100FDCC0100FDCC010037
:1001A00039780100FDCC0100FDCC0100FDCC01003F
:0C01B000FDCC0100FDCC0100FDCC0100E5
:10040000FFFFFFFFFFFFFFFFFFFFFFFF7EF9FFFF83
:1004200010B5054C237833B9044B13B10448AFF32E
:1004300000800123237010BD0010FF1F000000008A
:10044000B82F0200084B10B51BB108490848AFF39C
:1004500000800848036803B910BD074B002BFBD090
:10046000BDE81040184700BF000000000410FF1F47
:10047000B82F0200000FFF1F0000000010B517F09A
:1004800043FA064B00221A70054B1B689847054B30
:100490009B69BDE810405B69184700BFC409FF1F96
:1004A000A800FF1FE4140200431E2DE9F047154683
:1004B000072B00F25182DFE813F008000D000D0059
:1004C0004E006B00AF000101B401FFF7D7FF47F604
:1004D000A85350E0754B764C02280EBF9946A146B2
:1004E0001C46744BDF684FF0FF364FF000084FF0AA
:1004F000010A3B68D9F800001B6998473B682068EF
:10050000DB6898473B6820685B6998473B68D9F887
:1005100000001B6A984718B90AFA08F326EA03068E
:100520003B6820689B6998473B68D9F800001B6AC4
:10053000984718B10AFA08F326EA030608F10108F9
:10054000B8F1110F09F1040904F10404D1D1C6F383
:1005500010062E6062E12960032900F20082DFE8C4
:1005600001F0020C1014534BDB691B681B8832220C
:100570009BB253431B142B6050E14E4BDB695B680D
:10058000F4E74C4BDB699B68F0E74B4B1B69F2E7E8
:10059000012929602BD01AD3022940F0E081454B74
:1005A000DC686068236800F5A270DB6898476068C3
:1005B000236800F5B270DB6898476068236800F52F
:1005C000A2705B699847236860685B696AE0394B91
:1005D000DC68606823686430DB689847606823687B
:1005E0008430DB689847236860685B693DE0314B85
:1005F000DC6860682368C430DB68984760682368FB
:10060000A430DB68984760682368C4305B6998470A
:10061000236860685B6943E0012929602CD01AD304
:10062000022940F09C81234BDC686068236800F558
:10063000A270DB6898476068236800F5B270DB68D9
:1006400098476068236800F5A2705B699847236843
:1006500060689B6926E0174BDC686068236884301B
:10066000DB689847236860681B6964309847606856
:10067000236884305B69D0E00E4BDC6860682368D7
:10068000C430DB68984760682368A430DB6898470B
:1006900060682368C4305B699847236860689B6919
:1006A000A430BAE000F5B270B7E000BF4035FF1FDC
:1006B0002034FF1FE4140200C409FF1F2960002931
:1006C00056D0012940F04B817D4BDC68606823687F
:1006D00000F2C460DB6898476068236800F2C46079
:1006E0009B6998476068236800F2E460DB6898477C
:1006F0006068236800F2E4609B699847606823683B
:1007000000F20470DB6898476068236800F20470A8
:100710009B6998476068236800F22470DB689847FB
:100720006068236800F224709B69984760682368BA
:1007300000F24470DB6898476068236800F24470F8
:100740009B6998476068236800F26470DB6898478B
:100750006068236800F264709B699847606823684A
:1007600000F28470DB689847236860689B6952E0F8
:10077000534BDD6868682B6800F2C460DB689847FB
:1007800068682B6800F2C4605B69984768682B68EA
:1007900000F2E460DB68984768682B6800F2E46068
:1007A0005B69984768682B6800F20470DB689847BB
:1007B00068682B6800F204705B69984768682B686A
:1007C00000F22470DB68984768682B6800F2247098
:1007D0005B69984768682B6800F24470DB6898474B
:1007E00068682B6800F244705B69984768682B68FA
:1007F00000F26470DB68984768682B6800F26470E8
:100800005B69984768682B6800F28470DB689847DA
:100810002B6868685B6900F2847098470020BDE827
:10082000F087296000294DD0012940F09880244BA1
:10083000DC686068236800F28450DB689847606871
:10084000236800F284509B6998476068236800F22F
:10085000A450DB6898476068236800F2A4509B6945
:1008600098476068236800F2C450DB689847606866
:10087000236800F2C4509B6998476068236800F2BF
:10088000E450DB6898476068236800F2E4509B6995
:1008900098476068236800F20460DB6898476068E6
:1008A000236800F204609B6998476068236800F23F
:1008B0002460DB689847236860689B6949E000BF53
:1008C000E4140200274BDD6868682B6800F284504E
:1008D000DB68984768682B6800F284505B6998472A
:1008E00068682B6800F2A450DB68984768682B683A
:1008F00000F2A4505B69984768682B6800F2C45006
:10090000DB68984768682B6800F2C4505B699847B9
:1009100068682B6800F2E450DB68984768682B68C9
:1009200000F2E4505B69984768682B6800F2046045
:10093000DB68984768682B6800F204605B69984739
:1009400068682B6800F22460DB6898472B68686849
:100950005B6900F2246060E70420BDE8F0870220B4
:10096000BDE8F087E414020038B5064C2368C31ACA
:10097000B3F5FA7F054604D3034B9B699B699847FF
:10098000256038BD1C10FF1FE4140200464B474A87
:10099000DB68596801F59270443110605160596804
:1009A000843191605968C431D160596801F5827110
:1009B0001161596801F5B2715161596801F5D2713F
:1009C0009161596801F5F271D161596801F50971B8
:1009D0001162596801F519715162596801F529715F
:1009E0009162596801F53971D162596801F549710F
:1009F0001163596801F559715163596801F56971BD
:100A00009163596801F57971D163596801F2244104
:100A100011645968264A081D2431106051605968D4
:100A2000643191605968A431D1605968E431116131
:100A3000596801F5A2715161596801F5C27191615E
:100A4000596801F5E271D161596801F501711162CE
:100A5000596801F511715162596801F5217191626E
:100A6000596801F53171D162596801F5417111631D
:100A7000596801F551715163596801F561719163CC
:100A8000596801F57171D1635B6803F20443136423
:100A9000084B01221A70084B084A1A65084A9A65E1
:100AA000084A5A65704700BFE41402002034FF1F53
:100AB0004035FF1FC409FF1F6434FF1FA904000055
:100AC0007D04000069090000704702207047022081
:100AD000704770477047022070470220704702201D
:100AE000704701207047704770474369124A1349A5
:100AF00010B5C3F80422C3F80822114B8365114BCB
:100B0000836183620363C3610F4B43640F4B836450
:100B10000F4B4363C36303640E4B0F4A0F4C416298
:100B200003660F4942650023C16284630465C164A2
:100B3000C265836610BD00BFE30A0000CB0A000057
:100B4000C90A0000CF0A0000D30A0000D50A00003D
:100B5000DB0A0000E70A0000E90A0000DF0A0000E3
:100B6000D70A0000704700BF0A480B4B0022012142
:100B700010B44FF0FF3480F87C205A7083F81012C4
:100B80004467C0F88030816702671A706C3010BC0F
:100B9000FFF7ABBF6434FF1F2C10FF1F0848094A42
:100BA000426100230121C16013704FF0FF31537087
:100BB00082F81032816003744360FFF796BF00BF74
:100BC0006434FF1F4C12FF1F10B50023064C18465B
:100BD0001A5D590002F0030201338A40072B40EAF4
:100BE0000200F5D110BD00BF6C14FF1F04490023A3
:100BF0005A5C02F00302C2540133072BF8D170474C
:100C00006C14FF1F074B1A7802705A7842709A785A
:100C10008270DA78C2701A7902715A7942719B79BE
:100C2000837170476C14FF1FF8B5094B094F0A4DCB
:100C3000DE680024E15D33686A6CDB6952F82400E9
:100C400001F0030101349847072CF3D1F8BD00BF30
:100C5000E41402006C14FF1F0800FF1F054A002364
:100C600000F0030199540133072B4FEA9000F7D1AC
:100C7000DAE700BF6C14FF1F014B586AEEE700BFB4
:100C80000800FF1F04490023C25C02F003025A540B
:100C90000133072BF8D1C7E76C14FF1F074B02780D
:100CA0001A7042785A7082789A70C278DA70027933
:100CB0001A7142795A7182799A71B5E76C14FF1FE3
:100CC000014B00221A6770476434FF1F70B50B4E4A
:100CD0000B4D33682A4601460446002018F0A7F859
:100CE000002017F05BFC33682A462146012018F0EB
:100CF0009EF80120BDE8704017F050BC0438FF1F7B
:100D00008435FF1F012808B503D817F03BFC0020ED
:100D100008BD082008BD012808B503D817F026FC37
:100D2000002008BD082008BD0021F4E74942F2E791
:100D3000F1E7024B186818F08AB800BF0438FF1FAB
:100D400038B5002017F00AFD08B1002038BD012099
:100D500017F004FD05460028F7D10A4B0A4C186825
:100D600018F06CF817F040FD2B46A2682168284661
:100D700017F08AFC2B46E2686168012017F084FCBA
:100D8000012038BD0438FF1FA014FF1F022804BF34
:100D90000B4B93F8D80020B90A4BDB681B685B69E2
:100DA0000AE001280BD1064B93F8D830012B06D16D
:100DB000044BDB681B689B69034A1069184770473E
:100DC0006434FF1FE4140200A014FF1F70B500205C
:100DD000FFF7DCFF0A4B0B4CDD6820692B689B6832
:100DE00098472B68206A9B6898472B68606A9B68C5
:100DF000984717F055FD044BBDE870405B681847F5
:100E0000E4140200A014FF1F7409FF1F012838B565
:100E100004460D4605D820B917F0A0FC28602046EE
:100E200038BD082038BD022810B514460AD0032862
:100E300013D0012817D10D4B0D4ADB68106A1B68CF
:100E40001B6A05E0094B0A4ADB68506A1B681B6A8B
:100E50009847003018BF012002E0084617F0F2FB67
:100E60002060002010BD042010BD00BFE41402006B
:100E7000A014FF1F012838B504460D4608D817F006
:100E800053FC2B68C11829602046BDE8384039E77B
:100E9000082038BD2DE9F843184C9DF820609DF8D6
:100EA0002450984623680F469B68002147F0800035
:100EB00091469847236800219B68484698472368D5
:100EC00000219B6840469847236800219B68304674
:100ED0009847236828469B6801219847084B1B6860
:100EE00048EA092807F07F0746EA082603EB870748
:100EF00045EA06257D60BDE8F88300BF0838FF1F7E
:100F00000438FF1F07B5D3B20193C2F30723009340
:100F1000C2F30743120EFFF7BDFF03B05DF804FBF9
:100F20000020FFF7EFBF38B5234B01F07F042344C7
:100F300093F80032DB0705D4204B1B6803EB8404D5
:100F4000606838BD1E4D2B6800219B68204698477D
:100F50002B6800219B68084698472B6800219B68F6
:100F6000084698472B6800219B68084698472B68DD
:100F700001219B68002098472B6800219B68204630
:100F800098472B6800219B68084698472B680021EA
:100F900004029B68084698472B68002120430402FE
:100FA0009B68084698472B68204304029B680121F0
:100FB00000209847204338BD8435FF1F0438FF1FA9
:100FC0000838FF1F10B500201446FFF7ACFF206063
:100FD00010BDA42A2DE9F04104460D461E4600F03E
:100FE0008F8124D8062A00F09B800BD8022A63D078
:100FF00004D8002A46D0012A51D05CE3042A72D0DA
:1010000067D980E01D2A67D008D8082A00F0C5807B
:10101000C0F0A5801C2A00F0C8804CE3A22A00F092
:10102000338100F24F818C2A00F0E08043E3AC2A48
:1010300000F07A820FD8A82A00F0FF8105D8A62AEE
:1010400000F0B98140F27A81E9E1AA2A00F0308209
:1010500040F210824AE2B42A00F0E28208D8AE2AB6
:1010600000F09D82C0F07D82B32A00F0BC8222E3B2
:10107000B82A00F0EE82CE2A00F00F83B52A40F0A5
:101080001A83DAE218B9084617F05AFB11E301286F
:1010900040F000831968284617F074FAFAE218B98C
:1010A000084617F041FB04E3012840F0F382196879
:1010B000284617F013FBEDE218B9084617F05CFB61
:1010C000F7E2012840F0E6821968284617F04EFA48
:1010D000E0E220B9084686E0002800F08480012C78
:1010E00000F0E982D6E218B9084617F061FBE0E2A9
:1010F000012840F0CF8219680029B8BF494228462C
:1011000017F0FAFAC6E218B9084617F043FBD0E226
:10111000012840F0BF821968284617F0F3FBB9E2B6
:1011200050B92021A94041F01001C9B22846FFF76B
:10113000FAFEC0F30420BCE2012840F0AB82202478
:101140008C4044F01004E4B221462846FFF7EBFE41
:1011500033681B0203F4F85320F4F85295E250B9B7
:101160002021A94041F01001C9B22846FFF7DBFE5B
:1011700000F01F009DE2012840F08C8220248C406A
:1011800044F01004E4B221462846FFF7CCFE336851
:1011900020F01F0203F01F0377E200289FD10846CA
:1011A00017F050FAC0F3001083E250B9090141F082
:1011B0006C0101F0FC012846FFF7B5FEC0F380404A
:1011C00077E2012840F066820C0144F06C04E4B23E
:1011D00021462846FFF7A7FE33689B0403F48023CB
:1011E00020F4802251E217F0B9FA62E250B9090105
:1011F00041F06C0101F0FC012846FFF794FEC0F3BA
:10120000036056E2012840F045821B68102B1FD076
:101210000CDC022B18D003DC012B1FD108231FE0AC
:10122000042B13D0082B19D1052319E0402B11D022
:1012300003DC202B12D1032312E0802B0CD0B3F55A
:10124000807F0BD100230BE0072309E0062307E092
:10125000042305E0022303E0306002E04FF0FF3397
:1012600033603368013300F015822C0144F06C04C4
:10127000E4B221462846FFF756FE33681B0603F00A
:10128000706320F0706200E250B9090141F06C0116
:1012900001F0FC012846FFF746FEC0F3C13008E22A
:1012A000012840F0F7810C0144F06C04E4B22146BF
:1012B0002846FFF738FE3368DB0303F4C03320F41D
:1012C000C032E2E150B9090141F06C0101F0FC01CA
:1012D0002846FFF728FEC0F38030EAE1012840F0FD
:1012E000D9810C0144F06C04E4B221462846FFF792
:1012F0001AFE33689B0303F4804320F48042C4E168
:1013000050B9090141F06C0101F0FC012846FFF7DA
:101310000AFEC0F30030CCE1012840F0BB810C0193
:1013200044F06C04E4B221462846FFF7FCFD336824
:101330001B0303F4805320F48052A6E10F0147F011
:101340006C07FFB239462846FFF7EDFD804674B9B9
:1013500018F4804F3946284640D1FFF7E4FD18F4D1
:10136000006FC0F3021018BF40F00800A1E1012C8B
:1013700040F0908118F480483946284644D1FFF760
:10138000D2FD3268120120F0700002F070020243B8
:1013900039462846FFF7B6FD39462846FFF7C3FD14
:1013A000336813F0080F20F4006218BF4FF4006890
:1013B00042EA080231E00F0147F06C07FFB23946FC
:1013C0002846FFF7B0FD74B910F480483946284626
:1013D00004D0FFF7A8FDC0F302106AE1FFF7A3FDF8
:1013E000C0F3C31065E1012C40F0548110F4804F2C
:1013F0003946284608D0FFF796FD33681B0103F0F5
:10140000700320F0700207E0FFF78DFD3368DB0109
:1014100003F4F06320F4F0621A43394637E128B947
:10142000090141F06C0101F0FC0183E0012840F06A
:1014300031810C0144F06C0488E050B9090141F09D
:101440006D0101F0FD012846FFF76DFDC0F3C030CE
:101450002FE1012840F01E810C0144F06D04E4B23C
:1014600021462846FFF75FFD3368DB039BB220F47B
:1014700000420AE150B9090141F06D0101F0FD019E
:101480002846FFF750FDC0F3413012E1012840F03B
:1014900001810C0144F06D04E4B221462846FFF7B7
:1014A00042FD33685B0303F4C04320F4C042ECE028
:1014B00050B9090141F06D0101F0FD012846FFF727
:1014C00032FDC0F30320F4E0012840F0E3800C017A
:1014D00044F06D04E4B221462846FFF724FD33684A
:1014E0001B0203F4706320F47062CEE050B909016E
:1014F00041F06D0101F0FD012846FFF714FDC0F336
:101500004110D6E0012840F0C5800C0144F06D0484
:10151000E4B221462846FFF706FD33685B0103F07D
:10152000600320F06002B0E050B9090141F06D01A4
:1015300001F0FD012846FFF7F6FC00F00F00B8E0CF
:10154000012840F0A7800C0144F06D04E4B221466C
:101550002846FFF7E8FC336820F00F0203F00F0382
:1015600093E050B9090141F06D0101F0FD012846F9
:10157000FFF7D9FCC0F300609BE0012840F08A80AF
:101580000C0144F06D04E4B221462846FFF7CBFC81
:1015900033681B0603F0807320F0807275E088B911
:1015A000090141F06D0101F0FD012846FFF7BBFC88
:1015B000001400F07F0310F0400018BF6FF07F00B0
:1015C000184376E0012865D10C0144F06D04E4B2C3
:1015D00021462846FFF7A7FC33681B0403F4FE03EB
:1015E00020F4FE0251E050B9090141F06C0101F014
:1015F000FC012846FFF797FCC0F3404059E0012862
:1016000048D10C0144F06C04E4B221462846FFF7AF
:101610008AFC33685B0403F4003320F4003234E0C6
:1016200000287FF45CAD090141F06F01C9B2284682
:10163000FFF779FCC0F304403BE018B9084617F007
:10164000C5F836E0012825D11968284617F05EF85C
:1016500020E050B9090141F06C0101F0FC0128467D
:10166000FFF761FCC0F3403023E0012812D10C01E8
:1016700044F06C04E4B221462846FFF754FC33687A
:101680005B0303F4005320F400521A43214628461A
:10169000FFF738FC0020BDE8F08100287FF41FAD83
:1016A000090141F06F01C9B22846FFF73CFCC0F3C5
:1016B00009003060EEE70420BDE8F08107B501299C
:1016C000019205D8024601AB0120FFF782FC00E041
:1016D000082003B05DF804FB0129134602D8024636
:1016E000002076E40820704770B54E4E4E484F4CAF
:1016F00017F068FBF5686B6803F16402226103F17F
:10170000E402626203F58272226203F5A272A260B1
:1017100003F5B27203F59270626003F5C27203F5CD
:101720000173A3622B68E260DB68206098472B6836
:10173000A068DB6898472B686068DB6898472B686F
:10174000E068DB6898472B682069DB6898472B685E
:10175000A06ADB68364D98473369364A03F11401B5
:101760001160A26A9A61344B344A1A6017F03CF84F
:101770000023A2682168184616F086FFE2686168B7
:101780000023012016F080FF2D4B2E49D3F8802036
:10179000C2F804122C49C2F8081200240121117069
:1017A00054702A4AC3F88C20294AC3F88820294A51
:1017B000C3F88420284AC3F89020284AC3F8A420FC
:1017C000274AC3F8A020274AC3F89420264AC3F822
:1017D0009820264AC3F8B420254AC3F8B020254AE9
:1017E000C3F8C020244AC3F8BC20244AC3F8B82058
:1017F000234AC3F8CC20234AC3F8C82032229A6770
:101800004FF48F7202205A671F4A83F87C00C3F896
:10181000C420FFF7BBFA2B689847AB682046BDE8A9
:1018200070401847E41402008435FF1FA014FF1F06
:101830007409FF1F0838FF1F0438FF1F2C10FF1FFB
:101840006434FF1F410D0000330D0000170D000030
:10185000310D00002D0D0000290D0000D9160000EB
:10186000BD160000050D0000750E0000210F0000E0
:10187000C50F0000CD0C0000270E00000D0E00006B
:101880008D0D0000C10C0000CD0D0000014B104675
:10189000DB6B18470800FF1F034B10B51B6C144689
:1018A0009847206010BD00BF0800FF1F07B5034B1D
:1018B00068461B6B984703B05DF804FB0800FF1FE8
:1018C00070B50020FFF7F2FF1E4B1F4CDD68206B48
:1018D0002B689B6898472B68E06A9B6898472B6841
:1018E000E0689B6898472B68A0689B6898472B68BE
:1018F00060689B6898472B6820689B6898472B68AE
:10190000A0699B6898472B68E0699B6898472B689B
:10191000A06A9B6898472B6860699B6898472B680A
:10192000206A9B6898472B68606A9B6898472B6879
:1019300020699B68984716F0B3FF044BBDE87040E0
:101940005B681847E4140200D814FF1F7409FF1FD6
:10195000002016F023BE10B5044618B916F012FE8A
:10196000204610BD082010BD10B5044618B916F069
:10197000FDFD204610BD082010BD0021F4E74942BE
:10198000F2E7F1E7062873B505460C465CD8022954
:1019900003D901285AD10F2958DC2E4E6846336BE3
:1019A00098473346052D4AD8DFE805F003063E4147
:1019B00044478DF8004042E0082C40D8DFE804F0AE
:1019C000050A11161B20252A2F00F2788DF8012018
:1019D000327B03E032798DF80120727B8DF8022092
:1019E0002DE072798DF80120B27BF7E7B2798DF89E
:1019F0000120F27BF2E7F2798DF80120327CEDE7ED
:101A0000727A8DF80120B27CE8E7B27A8DF8012075
:101A1000F27CE3E7327A8DF80120727CDEE7F27A1D
:101A20008DF80120327DD9E78DF8034007E08DF86D
:101A3000044004E08DF8054001E08DF8064068465A
:101A4000DB6A9847002002E0042000E0102002B08A
:101A500070BD00BF0800FF1F73B5444E0546336BD1
:101A600068460C4698473346062D7AD8DFE805F0DD
:101A700076046A6D707376009DF80120F1789142CA
:101A800008D13A499DF80200097B884202D1002022
:101A9000206069E01979914207D134499DF802002C
:101AA000497B884201D101235AE05979914207D1FB
:101AB0002E499DF80200897B884201D102234FE024
:101AC0009979914207D129499DF80200C97B884242
:101AD00001D1032344E0D979914207D123499DF8EC
:101AE0000200097C884201D1042339E0597A9142ED
:101AF00007D11E499DF80200897C884201D1052347
:101B00002EE0997A914207D118499DF80200C97CCC
:101B1000884201D1062323E0197A914207D1134963
:101B20009DF80200497C884201D1072318E0DB7A46
:101B3000934218D10D4B9DF802201B7D9A4212D181
:101B400008230DE09DF803300AE09DF8043007E01B
:101B50009DF8053004E09DF8063001E09DF8003066
:101B60002360002000E0102002B070BD0800FF1FBD
:101B700038B51546B0B101281AD10E4B0E4DDC68B0
:101B80000E4A636803F59273D3616A6C53616A6CA1
:101B900023685069DB6898476A6C236850699B69C1
:101BA000984703E0084616F04DFD2860002038BD38
:101BB000042038BDE41402000800FF1FD814FF1FE2
:101BC00038B50C46054640B916F0AEFD2368C1187D
:101BD00021602846BDE83840BDE6082038BD30B554
:101BE00085B0054601920C4600295ED10B2815D818
:101BF000062839D202282AD007D820B3012856D186
:101C00001146204616F06AFD52E0042824D005282B
:101C10004DD11146204616F075FE49E0132806D82E
:101C20000E283BD20C2821D00D282ED03FE08C2846
:101C30003DD101A90120FFF70FFF1F4B04469B6B0D
:101C400002A8984734E0114616F09CFC1BE01146B0
:101C5000204616F08BFC2BE082EAE271A1EBE271E8
:101C6000204616F049FD23E0063818E01546134AD1
:101C7000134BD26812681DB15269D86A904717E0B9
:101C80009269D86A90472C4612E042F210739A4249
:101C90000DD80C4B90B29B68984709E00E3811465E
:101CA000C0B2FFF76FFE044602E0082400E00424FF
:101CB000204605B030BD00BF0800FF1FE41402003D
:101CC000D814FF1F7409FF1F10B51446002947D10F
:101CD000132847D8DFE800F00A0E12161A1E222237
:101CE000222222222A313D3D3D3D3D3D002016F07D
:101CF00027FD2CE0002016F017FD28E0002016F04C
:101D00003BFD24E0002016F029FD20E0002016F025
:101D10004FFD1CE0002016F03DFD18E0082821D101
:101D2000002016F08FFCC0F3001010E00E4B0F4A9D
:101D3000DB68D06A1B681B6A05E00B4B0B4ADB684B
:101D4000106B1B681B6A9847003018BF0120206089
:101D500004E00E381146C0B2FFF77EFE002010BD31
:101D6000082010BD042010BDE4140200D814FF1F89
:101D70006F4B2DE9F041DF686E4C786800F5E27337
:101D8000236300F5D273E36200F52173E36000F58D
:101D90002973A36000F51973636000F50173236074
:101DA00000F55973A36100F55173E36100F1640319
:101DB000A36200F5A273636100F56973236200F505
:101DC000717363623B6800F59270DB68206198472D
:101DD0003B686069DB6898473B68206BDB68984725
:101DE0003B68E06ADB6898473B68206A1B69984754
:101DF0003B68606A1B6998474F4BE1685A6C1160F9
:101E00005A6CA16851605A6C616891605A6C216883
:101E1000D1605A6CA16911615A6CE16951615A6CC7
:101E2000A16A916100251E46726C3B685059DB68BF
:101E30009847726C3B6850599B69043598471C2D34
:101E4000F2D13E4DD5F880304FF0000883F8008085
:101E500016F0CAFC434662692169404616F014FC3C
:101E600044F62061404616F047FC46F2A811404671
:101E700016F048FD324BC5F88C30324BC5F888302F
:101E8000314BC5F88430314BC5F89030304BC5F834
:101E9000A430304BC5F8A0302F4BC5F894302F4BF1
:101EA000C5F898302E4BC5F8B4302E4BC5F8B0307D
:101EB0002D4BC5F8BC302D4BC5F8C0302C4BC5F8A8
:101EC000CC30012385F87C3002202A4BC5F8C43081
:101ED000FFF7ECFC404616F041FC10B1264B9B7816
:101EE0009BB1B36A984716F07FFC002318466269DD
:101EF000216916F0C9FB44F62061002016F0FCFBB6
:101F000046F2A811002016F0FDFC3B68206BDB6850
:101F10009847206B194C042343753B681B6898470E
:101F200023689847A3680020BDE8F041184700BF28
:101F3000E4140200D814FF1F0800FF1F6434FF1FC1
:101F400069190000831900007F1900007B19000047
:101F5000C91C0000DF1B000057190000C11B000056
:101F60008D18000099180000711B00005119000025
:101F7000AD180000C1180000C409FF1F7409FF1F3D
:101F80001B4B70B5DD681B4C2B68A0685B699847DC
:101F90002B6820689B6898472B6860689B68984707
:101FA0002B68206A9B6898472B68606A9B689847F3
:101FB0002B68E0689B6898472B6820699B68984766
:101FC0002B6860699B6898472B68A0699B68984755
:101FD0002B68E0699B6898472B68A0689B689847C6
:101FE00016F05EFC044BBDE870405B68184700BF0C
:101FF000E41402001815FF1F7409FF1F10B51446E2
:10200000052804D8DFE800F0052243333F450420CB
:1020100010BD146844F620639C4245D8234B244AE3
:10202000DB68106A1B6842F210718C42DB6994BF56
:1020300000210121984742F21170B4FBF0F300FB3C
:1020400013401C4B80B29B68984720E0174B1468E4
:10205000DB6858681B6824B1DB69002100F5F27069
:102060000FE09B6800F5F2709847204610BD0F4BBB
:102070001168DB680E4A1B681069DB69003118BF04
:102080000121984703E0084616F0DCFA20600020A2
:1020900010BD064B064ADB6858681B6800F5927055
:1020A000DB6810619847F2E7102010BDE4140200CD
:1020B0001815FF1F7409FF1F10B50348144616F0CA
:1020C00010FF206010BD00BF0C38FF1F014816F044
:1020D000FABE00BF0C38FF1F10B5044618B916F041
:1020E00051FA204610BD082010BD10B5044618B99D
:1020F00016F03CFA204610BD082010BD0021F4E780
:102100004942F2E7F1E7014816F04DBF0C38FF1FD6
:1021100008B5002016F022FB10B1084B987858B192
:10212000074816F02BFF16F05FFB06490023184600
:1021300006C916F0A9FA012008BD00BFC409FF1F97
:102140000C38FF1F1815FF1F022804BF0B4B93F814
:10215000D80020B90A4BDB681B685B690AE00128DC
:102160000BD1064B93F8D830012B06D1044BDB681A
:102170001B689B69034A9068184770476434FF1FC7
:10218000E41402001815FF1F38B50D46044620B9A7
:1021900016F0E4FA2860204638BD082038BD10B596
:1021A00001460E4816F017FF002016F0F7F9002040
:1021B00016F048FA00F0080303F0FF046BB982063A
:1021C0000BD56F21054816F08CFEC30105D52046BE
:1021D0000221BDE8104016F00DBA10BD0C38FF1FEB
:1021E000012903D1024A702116F06DBE704700BF6D
:1021F000C804050038B50C46054640B916F094FAF7
:102200002368C11821602846BDE8384064E70820EB
:1022100038BDA62A70B504460E461D4600F05C8205
:1022200051D8172A00F0278124D8042A00F0C8804A
:102230000CD8012A00F0A080C0F09180022A00F0A2
:10224000A880032A00F0B28000F058BC072A00F0F2
:10225000EA8007D8052A00F0C380062A00F0CD8066
:1022600000F04CBC082A00F0F580152A00F0FA8036
:1022700000F044BC1D2A00F09C8010D81A2A00F0FF
:102280001B8104D8182A00F00B8100F037BC1B2AF0
:1022900000F023811C2A00F0368100F02FBCA32A15
:1022A00000F0AA8107D88C2A00F04681A22A00F00B
:1022B0008D8100F023BCA42A00F0B481A52A00F08F
:1022C000C78100F01BBCB52A00F0178322D8AB2AC7
:1022D00000F093820CD8A82A00F04E82C0F03C8215
:1022E000A92A00F05E82AA2A00F0718200F006BCE2
:1022F000AE2A00F0C38206D8AC2A00F09482AD2A40
:1023000000F0A682FAE3B32A00F0D782B42A00F0E4
:10231000EA82F3E3BB2A00F065830ED8B82A00F006
:102320000E8303D8B62A00F0F582E7E3B92A00F05D
:102330001C83BA2A00F02F83E0E3C02A00F0A283B6
:1023400006D8BC2A00F07483BF2A00F08383D5E34B
:10235000CC2A00F0AD83CE2A00F0C583CEE318B9B5
:10236000084616F0EDF9C7E3012840F0BA83196872
:10237000304616F007F9B4E318B9084616F0D4F958
:10238000BAE3012840F0AD831968304616F0A6F98B
:10239000A7E318B9084616F0EFF9ADE3012840F0BD
:1023A000A0831968304616F0E1F89AE320B9084690
:1023B000BFE0002800F0BD80012C00F09F8390E377
:1023C00018B9084616F0F4F996E3012840F089831D
:1023D00019680029B8BF4942304616F08DF980E3EC
:1023E00018B9084616F0D6F986E3012840F079833B
:1023F0001968304616F086FA73E330B91021B448F4
:1024000016F06FFDC0F3042076E3012840F06983E5
:102410001021AF4816F065FD2B681B0203F4F8533A
:1024200020F4F85213E030B91021A94816F059FDF4
:1024300000F01F0060E3012840F053831021A448FE
:1024400016F04FFD2B6820F01F0203F01F031A4304
:10245000102143E30028AFD1084616F0F3F8C0F38B
:10246000001049E3002800F04983012840F0398337
:102470001A68112132E308B915218EE2012840F0D3
:1024800030831A6893493AB14FF0807393FBF2F2AC
:102490008A42A8BF0A4600E00A462A6015211DE3C9
:1024A00020B933218A4816F01CFD25E3012840F0AD
:1024B00018831A68332111E308B96C21E4E201287A
:1024C00040F00F836C21824816F00BFD2B689B04B3
:1024D00003F4802320F4802232E130B96C217C485F
:1024E00016F0FFFCC0F3C04006E3012840F0F9827B
:1024F0006C21774816F0F5FC2B68DB0403F400230D
:1025000020F400221CE130B90146714816F0E9FCC4
:10251000C0F34000F0E2012840F0E38200216C4863
:1025200016F0DFFC2B685B0003F0020320F00202D0
:102530007BE216F013F9DFE250B96C21644816F023
:10254000D0FC4FF48073C0F3036043FA00F0D3E291
:10255000012840F0C6821B68102B1FD00CDC022B18
:1025600018D003DC012B1FD108231FE0042B13D04C
:10257000082B19D1052319E0402B11D003DC202BA7
:1025800012D1032312E0802B0CD0B3F5807F0BD146
:1025900000230BE0072309E0062307E0042305E0FE
:1025A000022303E0286002E04FF0FF332B602B682A
:1025B000013300F0A5826C21454816F092FC2B688F
:1025C0001B0603F0706320F07062B9E030B96C2133
:1025D0003F4816F086FCC0F3C1308DE2012840F080
:1025E00080826C213A4816F07CFC2B68DB0303F4F4
:1025F000C03320F4C032A3E030B96C21344816F067
:1026000070FCC0F3803077E2012840F06A826C21D0
:102610002F4816F066FC2B689B0303F4804320F4DC
:1026200080428DE030B96C21294816F05AFCC0F385
:10263000003061E2012840F054826C21244816F0F9
:1026400050FC2B681B0303F4805320F4805277E086
:10265000D0B96C211E4816F044FC10F4804F4FF0A6
:102660006C011B4804D016F03CFCC0F3C31043E2DD
:1026700016F037FC6C210646154816F032FC16F4AD
:10268000006FC0F3021042E0012840F02A826C2162
:102690000F4816F026FC10F480444FF06C010C48F3
:1026A00051D116F01EFC6C21094816F01AFC2B685B
:1026B00013F0080320F4006218BF4FF400636C218C
:1026C00003481A4316F0FFFB6C21014830E000BFBD
:1026D0000C38FF1FFFFF0F00E8B96C21B64816F059
:1026E00000FC10F480464FF06C01B34804D016F0A3
:1026F000F8FBC0F30210FFE116F0F3FB6C21044677
:10270000AD4816F0EEFB14F4006FC0F3C31018BF11
:1027100040F00800F0E1012840F0E3816C21A64878
:1027200016F0DFFB10F480444FF06C01A2480AD091
:1027300016F0D7FB2B681B0103F0700320F070022A
:102740001A436C21CAE116F0CCFB2B68DB0103F4C1
:10275000F06320F4F062F3E708B96C2165E001282A
:1027600040F0BF816C21944816F0BBFB2B6820F031
:102770000F0203F00F03E3E730B96D218E4816F026
:10278000B0FBC0F3C030B7E1012840F0AA816D2151
:10279000894816F0A6FB2B68DB039BB220F40042AD
:1027A00088E030B96D21844816F09BFBC0F34130BE
:1027B000A2E1012840F095816D217F4816F091FB40
:1027C0002B685B0303F4C04320F4C04272E030B9CD
:1027D0006D21794816F085FBC0F303208CE10128B8
:1027E00040F07F816D21744816F07BFB2B681B0243
:1027F00003F4706320F470625CE030B96D216E48C0
:1028000016F06FFBC0F3411076E1012840F06981BA
:102810006D21694816F065FB2B685B0103F06003CE
:1028200020F0600246E030B96D21634816F059FB94
:1028300000F00F0060E1012840F053816D215E48F7
:1028400016F04FFB2B6820F00F0203F00F0331E06E
:1028500030B96D21584816F044FBC0F300604BE1DD
:10286000012840F03E816D21534816F03AFB2B6859
:102870001B0603F0807320F080721BE068B96D21A5
:102880004D4816F02EFB001400F07F0310F04000BE
:1028900018BF6FF07F0018432EE1012840F021811E
:1028A0006D21454816F01DFB2B681B0403F4FE0345
:1028B00020F4FE021A436D2110E130B96C213E482C
:1028C00016F00FFBC0F3404016E1012840F00981EB
:1028D0006C21394816F005FB2B685B0403F40033C8
:1028E00020F400322CE700287FF466AD6F213248D7
:1028F00016F0F7FAC0F30440FEE018B9084615F0E8
:1029000065FFF9E0012840F0EC801968304615F0C9
:10291000FDFEE6E008B914213FE0012840F0E18027
:102920001A6826493AB14FF0807393FBF2F28A425B
:10293000A8BF0A4600E00A462A601421CEE030B95A
:102940006C211D4816F0CDFAC0F34030D4E00128C8
:1029500040F0C7806C21184816F0C3FA2B685B035F
:1029600003F4005320F40052EAE630B96C21124817
:1029700016F0B7FAC0F30350BEE0012840F0B18072
:102980006C210D4816F0ADFA2B681B0503F470039B
:1029900020F47002D4E698B91321074816F0A1FA82
:1029A000064A38B14FF0807393FBF0F09042A8BF15
:1029B0001046A1E010469FE00C38FF1FFFFF0F00FC
:1029C000012840F08E801A684E493AB14FF080736A
:1029D00093FBF2F28A42A8BF0A4600E00A462A6048
:1029E00013217BE030B97021474816F07AFAC0F322
:1029F000072081E0012874D17021434816F071FA54
:102A00002A68120220F47F4092B2024370213E48AD
:102A100016F059FA00213C4816F063FA2B68002B97
:102A200020F00402CCBF042300231A43002155E008
:102A300028B97021344816F054FAC0B25CE001287D
:102A40004FD17021304816F04CFA2A7820F0FF0060
:102A5000024342E030B970212B4816F042FAC0F32D
:102A6000014049E001283CD11B68032B48D8702164
:102A7000254816F036FA2B681B0403F4403320F483
:102A8000403229E030B970211F4816F02AFAC0F30D
:102A9000804031E0012824D170211B4816F021FA32
:102AA0002B68002B20F4802218BF4FF4802313E002
:102AB00030B97021144816F014FAC0F301501BE02D
:102AC00001280ED17021104816F00BFA2B681B0557
:102AD00003F4401320F440121A4370210A4816F000
:102AE000F2F9002070BD00287FF466AC6F21064823
:102AF00016F0F7F9C0F309002860F2E7042070BD72
:102B0000102070BDFFFF0F000C38FF1F07B50192AA
:102B100029B9024601AB0120FFF77BFB00E008204A
:102B200003B05DF804FB10B413460446084619B917
:102B3000224610BCFFF76DBB082010BC7047064B47
:102B40009B6A0846114613B1044B9B6E02E0044B8E
:102B50001B68DB68184700BF1815FF1F6434FF1F90
:102B6000903AFF1F2DE9F041664D674BD5F8802064
:102B70006648674F674C012116F0E4F966496348DF
:102B800016F025FAFE68736803F16402A26003F58B
:102B90009272226003F5A272626003F5D272226221
:102BA00003F5E272626203F55172E26003F5597255
:102BB00003F56970226103F5617203F57173E361D6
:102BC000336862611B69A06198473368E0691B69DB
:102BD0009847336860691B69984733682068DB68E9
:102BE000984733686068DB6898473368A068DB689B
:102BF000984733682069DB6898473368E068DB688A
:102C000098473368606ADB6898473368206ADB68F6
:102C100098473368606A9B6998473368206A9B6964
:102C20009847336860699B6998473368E0689B6997
:102C300098473A69394B02F114011960736803F53A
:102C40000173936115F0D0FD002394E80600184647
:102C500015F01AFDD5F88030314AC3F80422314A04
:102C6000C3F808220021012259701A702E4BC5F8B2
:102C70008C302E4BC5F888302D4BC5F884302D4B49
:102C8000C5F890302C4BC5F8A4302C4BC5F8A030BB
:102C90002B4BC5F894302B4BC5F898302A4BC5F810
:102CA000B4302A4BC5F8B030294BC5F8C030294B99
:102CB000C5F8BC30284BC5F8B830284BC5F8CC3027
:102CC0003223AB674FF4F0736B67254BC5F8C43004
:102CD000AB6E85F87C2003B1A2620220FFF734FAC4
:102CE0003368606ADB689847606A1E4C042343754A
:102CF00033681B68984723689847A3680020BDE89D
:102D0000F04118476434FF1FDC0402000C38FF1F39
:102D1000E41402001815FF1FE1210000903AFF1F84
:102D20001121000007210000EB2000000521000018
:102D300001210000FD200000272B00000D2B0000CA
:102D4000D9200000F5210000CD200000B9200000AE
:102D50009F210000FD1F0000892100004921000083
:102D6000811F00007409FF1F194B70B5DD68194CF5
:102D70002B6820685B6998472B6860689B68984758
:102D80002B68A0689B6898472B68E0689B68984709
:102D90002B6820699B6898472B6860699B689847F7
:102DA0002B68A0699B6898472B68E0699B689847E7
:102DB0002B68206A9B6898472B6820689B68984717
:102DC00015F06EFD044BBDE870405B68184700BF0E
:102DD000E41402005015FF1F7409FF1F10B51446BC
:102DE000052804D8DFE800F005153626323804201F
:102DF00010BD126844F620639A4238D842F211702E
:102E0000B2FBF0F300FB13201A4B80B29B6898478B
:102E100020E0194B1468DB6858681B6824B1DB6933
:102E2000002100F5F2700FE09B6800F5F270984702
:102E3000204610BD104B1168DB68104A1B685069B2
:102E4000DB69003118BF0121984703E0084615F0FF
:102E5000F9FB2060002010BD074B084ADB6858686A
:102E60001B6800F59270DB6850619847F2E710200C
:102E700010BD00BF7409FF1FE41402005015FF1FAE
:102E800010B50348144616F026F9206010BD00BFA7
:102E9000983AFF1F014816F010B900BF983AFF1F7B
:102EA00010B5044618B915F06DFB204610BD08207A
:102EB00010BD10B5044618B915F058FB204610BDDA
:102EC000082010BD0021F4E74942F2E7F1E701488C
:102ED00016F063B9983AFF1F08B5002015F03EFCC4
:102EE00010B1084B987860B1074816F041F915F019
:102EF0007BFC064900238A684968184615F0C4FB24
:102F0000012008BDC409FF1F983AFF1F5015FF1F7D
:102F1000022804BF0B4B93F8D80020B90A4BDB689A
:102F20001B685B690AE001280BD1064B93F8D83087
:102F3000012B06D1044BDB681B689B69034A1068B0
:102F4000184770476434FF1FE41402005015FF1F38
:102F500038B50D46044620B915F000FC286020461F
:102F600038BD082038BD10B501460E4816F02DF9C1
:102F7000002015F013FB002015F064FB00F008039F
:102F800003F0FF046BB982060BD56F21054816F0DC
:102F9000A2F8C30105D520460221BDE8104015F076
:102FA00029BB10BD983AFF1F012903D1024A7021A5
:102FB00016F083B8704700BF1E000CC438B50C462D
:102FC000054640B915F0B0FB2368C11821602846BA
:102FD000BDE8384064E7082038BDA62A70B504462D
:102FE0000E461D4600F05C8251D8172A00F027815A
:102FF00024D8042A00F0C8800CD8012A00F0A08050
:10300000C0F09180022A00F0A880032A00F0B2806C
:1030100000F058BC072A00F0EA8007D8052A00F023
:10302000C380062A00F0CD8000F04CBC082A00F0D6
:10303000F580152A00F0FA8000F044BC1D2A00F04B
:103040009C8010D81A2A00F01B8104D8182A00F09E
:103050000B8100F037BC1B2A00F023811C2A00F0F2
:10306000368100F02FBCA32A00F0AA8107D88C2A51
:1030700000F04681A22A00F08D8100F023BCA42A32
:1030800000F0B481A52A00F0C78100F01BBCB52A6E
:1030900000F0178322D8AB2A00F093820CD8A82A1C
:1030A00000F04E82C0F03C82A92A00F05E82AA2A7B
:1030B00000F0718200F006BCAE2A00F0C38206D890
:1030C000AC2A00F09482AD2A00F0A682FAE3B32A7B
:1030D00000F0D782B42A00F0EA82F3E3BB2A00F0C2
:1030E00065830ED8B82A00F00E8303D8B62A00F004
:1030F000F582E7E3B92A00F01C83BA2A00F02F8397
:10310000E0E3C02A00F0A28306D8BC2A00F0748352
:10311000BF2A00F08383D5E3CC2A00F0AD83CE2A0A
:1031200000F0C583CEE318B9084615F009FBC7E3E4
:10313000012840F0BA831968304615F023FAB4E349
:1031400018B9084615F0F0FABAE3012840F0AD834B
:103150001968304615F0C2FAA7E318B9084615F009
:103160000BFBADE3012840F0A0831968304615F051
:10317000FDF99AE320B90846BFE0002800F0BD80C1
:10318000012C00F09F8390E318B9084615F010FB5E
:1031900096E3012840F0898319680029B8BF4942A5
:1031A000304615F0A9FA80E318B9084615F0F2FA8E
:1031B00086E3012840F079831968304615F0A2FBB8
:1031C00073E330B91021B44815F085FFC0F3042033
:1031D00076E3012840F069831021AF4815F07BFFAA
:1031E0002B681B0203F4F85320F4F85213E030B9B3
:1031F0001021A94815F06FFF00F01F0060E30128BF
:1032000040F053831021A44815F065FF2B6820F08F
:103210001F0203F01F031A43102143E30028AFD11C
:10322000084615F00FFAC0F3001049E3002800F03B
:103230004983012840F039831A68112132E308B923
:1032400015218EE2012840F030831A6893493AB183
:103250004FF0807393FBF2F28A42A8BF0A4600E067
:103260000A462A6015211DE320B933218A4815F04A
:1032700032FF25E3012840F018831A68332111E357
:1032800008B96C21E4E2012840F00F836C218248E8
:1032900015F021FF2B689B0403F4802320F4802287
:1032A00032E130B96C217C4815F015FFC0F3C04005
:1032B00006E3012840F0F9826C21774815F00BFFF6
:1032C0002B68DB0403F4002320F400221CE130B956
:1032D0000146714815F0FFFEC0F34000F0E20128FE
:1032E00040F0E38200216C4815F0F5FE2B685B008E
:1032F00003F0020320F002027BE215F02FFADFE276
:1033000050B96C21644815F0E6FE4FF48073C0F3A9
:10331000036043FA00F0D3E2012840F0C6821B6844
:10332000102B1FD00CDC022B18D003DC012B1FD17B
:1033300008231FE0042B13D0082B19D1052319E013
:10334000402B11D003DC202B12D1032312E0802B61
:103350000CD0B3F5807F0BD100230BE0072309E0ED
:10336000062307E0042305E0022303E0286002E0CF
:103370004FF0FF332B602B68013300F0A5826C21E6
:10338000454815F0A8FE2B681B0603F0706320F07B
:103390007062B9E030B96C213F4815F09CFEC0F373
:1033A000C1308DE2012840F080826C213A4815F04E
:1033B00092FE2B68DB0303F4C03320F4C032A3E099
:1033C00030B96C21344815F086FEC0F3803077E2C6
:1033D000012840F06A826C212F4815F07CFE2B6892
:1033E0009B0303F4804320F480428DE030B96C21CC
:1033F000294815F070FEC0F3003061E2012840F06A
:1034000054826C21244815F066FE2B681B0303F4DC
:10341000805320F4805277E0D0B96C211E4815F01B
:103420005AFE10F4804F4FF06C011B4804D015F089
:1034300052FEC0F3C31043E215F04DFE6C21064668
:10344000154815F048FE16F4006FC0F3021042E074
:10345000012840F02A826C210F4815F03CFE10F440
:1034600080444FF06C010C4851D115F034FE6C21B2
:10347000094815F030FE2B6813F0080320F40062B1
:1034800018BF4FF400636C2103481A4315F015FE72
:103490006C21014830E000BF983AFF1FFFFF0F008A
:1034A000E8B96C21B64815F016FE10F480464FF0CE
:1034B0006C01B34804D015F00EFEC0F30210FFE11A
:1034C00015F009FE6C210446AD4815F004FE14F415
:1034D000006FC0F3C31018BF40F00800F0E10128EE
:1034E00040F0E3816C21A64815F0F5FD10F480440E
:1034F0004FF06C01A2480AD015F0EDFD2B681B01BE
:1035000003F0700320F070021A436C21CAE115F039
:10351000E2FD2B68DB0103F4F06320F4F062F3E7D3
:1035200008B96C2165E0012840F0BF816C21944806
:1035300015F0D1FD2B6820F00F0203F00F03E3E735
:1035400030B96D218E4815F0C6FDC0F3C030B7E12B
:10355000012840F0AA816D21894815F0BCFD2B6837
:10356000DB039BB220F4004288E030B96D2184482F
:1035700015F0B1FDC0F34130A2E1012840F0958182
:103580006D217F4815F0A7FD2B685B0303F4C04352
:1035900020F4C04272E030B96D21794815F09BFDEE
:1035A000C0F303208CE1012840F07F816D21744835
:1035B00015F091FD2B681B0203F4706320F4706218
:1035C0005CE030B96D216E4815F085FDC0F3411007
:1035D00076E1012840F069816D21694815F07BFD95
:1035E0002B685B0103F0600320F0600246E030B915
:1035F0006D21634815F06FFD00F00F0060E10128B8
:1036000040F053816D215E4815F065FD2B6820F078
:103610000F0203F00F0331E030B96D21584815F067
:103620005AFDC0F300604BE1012840F03E816D215E
:10363000534815F050FD2B681B0603F0807320F0F3
:1036400080721BE068B96D214D4815F044FD0014EF
:1036500000F07F0310F0400018BF6FF07F001843A8
:103660002EE1012840F021816D21454815F033FD00
:103670002B681B0403F4FE0320F4FE021A436D21A1
:1036800010E130B96C213E4815F025FDC0F34040F3
:1036900016E1012840F009816C21394815F01BFD25
:1036A0002B685B0403F4003320F400322CE700287D
:1036B0007FF466AD6F21324815F00DFDC0F3044074
:1036C000FEE018B9084615F081F8F9E0012840F04D
:1036D000EC801968304615F019F8E6E008B91421B5
:1036E0003FE0012840F0E1801A6826493AB14FF0E6
:1036F000807393FBF2F28A42A8BF0A4600E00A46B2
:103700002A601421CEE030B96C211D4815F0E3FC8D
:10371000C0F34030D4E0012840F0C7806C21184845
:1037200015F0D9FC2B685B0303F4005320F400521E
:10373000EAE630B96C21124815F0CDFCC0F3035015
:10374000BEE0012840F0B1806C210D4815F0C3FCAB
:103750002B681B0503F4700320F47002D4E698B9BB
:103760001321074815F0B7FC064A38B14FF08073B3
:1037700093FBF0F09042A8BF1046A1E010469FE0F6
:10378000983AFF1FFFFF0F00012840F08E801A6853
:103790004E493AB14FF0807393FBF2F28A42A8BFD0
:1037A0000A4600E00A462A6013217BE030B9702106
:1037B000474815F090FCC0F3072081E0012874D140
:1037C0007021434815F087FC2A68120220F47F40DC
:1037D00092B2024370213E4815F06FFC00213C4834
:1037E00015F079FC2B68002B20F00402CCBF0423D9
:1037F00000231A43002155E028B97021344815F000
:103800006AFCC0B25CE001284FD17021304815F04D
:1038100062FC2A7820F0FF00024342E030B97021B8
:103820002B4815F058FCC0F3014049E001283CD179
:103830001B68032B48D87021254815F04CFC2B68D9
:103840001B0403F4403320F4403229E030B97021E6
:103850001F4815F040FCC0F3804031E0012824D11E
:1038600070211B4815F037FC2B68002B20F48022B8
:1038700018BF4FF4802313E030B97021144815F0BD
:103880002AFCC0F301501BE001280ED17021104822
:1038900015F021FC2B681B0503F4401320F44012A3
:1038A0001A4370210A4815F008FC002070BD00285A
:1038B0007FF466AC6F21064815F00DFCC0F30900DB
:1038C0002860F2E7042070BD102070BDFFFF0F00DC
:1038D000983AFF1F07B5019229B9024601AB0120B2
:1038E000FFF77BFB00E0082003B05DF804FB10B499
:1038F00013460446084619B9224610BCFFF76DBBB3
:10390000082010BC7047064B5B6A0846114613B18D
:10391000044B9B6E02E0044B1B68DB68184700BF3A
:103920005015FF1F6434FF1F943AFF1F2DE9F0412B
:10393000624D634BD5F880206248634F634C012190
:1039400015F0FAFB62495F4815F03BFCFE687368AE
:1039500003F16402226003F59272626003F5A272C1
:10396000A26003F5E272E26003F55172226103F591
:10397000597203F56970626103F5617203F5717341
:1039800023623368A2611B69E06198473368206A4B
:103990001B6998473368A0691B699847336820689A
:1039A000DB68984733686068DB6898473368A068CD
:1039B000DB6898473368E068DB689847336860697C
:1039C000DB68984733682069DB6898473368E068AC
:1039D0005B6998473368A0699B6998473368206999
:1039E0009B6998477068336800F5F270DB68984708
:1039F0007068336800F5F2709B6998473A69354BF7
:103A000002F114011960736803F50173936114F0F6
:103A1000EBFE0023A2686168184614F035FED5F865
:103A200080302D4AC3F804222C4AC3F80822002112
:103A3000012259701A702A4BC5F88C30294BC5F8F1
:103A40008830294BC5F88430284BC5F89030284B76
:103A5000C5F8A430274BC5F8A030274BC5F89430E3
:103A6000264BC5F89830264BC5F8B430254BC5F821
:103A7000B030254BC5F8C030244BC5F8BC30244BC2
:103A8000C5F8B830234BC5F8CC303223AB674FF4C0
:103A9000F0736B67204BC5F8C430AB6E85F87C20A3
:103AA00003B162621D4C0220FFF732FA2368984787
:103AB000A3680020BDE8F041184700BF6434FF1F31
:103AC000DC060200983AFF1FE41402005015FF1FA5
:103AD000A92F0000943AFF1FD92E0000CF2E00001E
:103AE000B32E0000CD2E0000C92E0000C52E000010
:103AF000EF380000D5380000A12E0000BD2F0000D7
:103B0000952E0000812E0000672F0000DD2D0000A3
:103B1000512F0000112F0000692D00007409FF1FB4
:103B2000014B00221A6770476434FF1FF7B5052365
:103B30008DF8003061F07F038DF8023013168DF898
:103B4000033013148DF804308DF8062013120E463E
:103B500015460024012207216846104F8DF80530D4
:103B60008DF8014015F00AF83B688DF807009B6955
:103B700098473B681DF804009B6801349847082C5F
:103B8000F7D1022011F062FD054B1B6826F080067C
:103B900003EB8606756003B0F0BD00BF203DFF1F3C
:103BA0001C3DFF1FF0B5324B01F07F06334485B05A
:103BB00093F80C32DB07154605D42E4B1B6803EB3C
:103BC0008606736850E00523012203218DF8043036
:103BD000294C8DF80660002301A88DF8053014F0FB
:103BE000CDFF23688DF807009B699847236804215F
:103BF0001B690DEB0100984711F022FD0746236871
:103C0000DB699847072805D8384611F029FD0A28AE
:103C1000F5D92AE0184B1B6808215B690DEB010000
:103C200098470122072102A89DF80F4014F0A6FF33
:103C300084421AD19DF80830052B16D19DF8093021
:103C4000FF2B12D19DF80A30B3420ED19DF80C30F3
:103C50009DF80B201B0443EA02639DF80E201343DA
:103C60009DF80D2043EA02232B6005B0F0BD00BF94
:103C7000243DFF1F1C3DFF1F203DFF1F08B5064BC5
:103C8000064A1B680146002015F018FB0020BDE81D
:103C9000084014F083BC00BF1C3DFF1F243DFF1FE4
:103CA00038B51546044628B9084614F0CBFC286000
:103CB000204638BD042038BD10B5044618B914F0AC
:103CC00061FC204610BD082010BD10B5044618B98F
:103CD00014F04CFC204610BD082010BD0021F4E774
:103CE0004942F2E7F1E7024B186815F0FFBA00BF4E
:103CF0001C3DFF1F08B514F077FD06490023184648
:103D00008A68496814F0C0FC034B1868BDE8084095
:103D100015F0E3BA8415FF1F1C3DFF1F022804BFE6
:103D20000B4B93F8D80020B90A4BDB681B685B6922
:103D30000AE001280BD1064B93F8D830012B06D1AD
:103D4000044BDB681B689B69034A1068184770477F
:103D50006434FF1FE41402008415FF1F38B50020EF
:103D6000FFF7DCFF114B124CDD6820682B689B6865
:103D700098472B6860689B6898472B68A0689B6889
:103D800098472B68E0689B6898472B6820699B6878
:103D900098472B6860699B6898472B68A0699B6867
:103DA0009847BDE8384014F07BBD00BFE414020022
:103DB0008415FF1F38B50C46054640B914F0B4FC15
:103DC0002368C11821602846BDE8384074E7082000
:103DD00038BD08B519BB052823D8DFE800F0030873
:103DE0000D22131B1146002014F0CCFB08E01146F5
:103DF000002014F073FC03E01146002014F0B6FB21
:103E0000002008BD82EAE271A1EBE271002014F00B
:103E100073FCF5E71146002014F074FDF0E708206C
:103E200008BD042008BD10B5144601BB052820D8E4
:103E3000DFE800F003070B0F1317002014F080FCDD
:103E400012E0002014F070FC0EE0002014F094FC4E
:103E50000AE0002014F082FC06E0002014F0A8FC28
:103E600002E0002014F096FC2060002010BD082025
:103E700010BD042010BD59E694E6012270B511462C
:103E80004B4E4C4C072014F01FFE4B4815F0DCF94C
:103E9000F5686B6803F59272626003F5A272A26026
:103EA00003F1C402E26003F1E40203F16400226161
:103EB00003F18402A433A3612B686261DB68206094
:103EC00098472B686068DB6898472B68A068DB68B8
:103ED00098472B68E068DB6898472B682069DB68A7
:103EE00098472B6860691B6998472B68A0691B6914
:103EF0009847F56A2B689847304B31491D60314B24
:103F0000D3F880200A603049C2F804120025012647
:103F10002E4916705570C2F808122D4AC3F88C202D
:103F20002C4AC3F888202C4AC3F884202B4AC3F8B3
:103F300090202B4AC3F8A4202A4AC3F8A0202A4A7A
:103F4000C3F89420294AC3F89820294AC3F8B4201A
:103F5000284AC3F8B020284AC3F8BC20274AC3F82F
:103F6000CC20274AC3F8C82032229A674FF4C37284
:103F70005A67244AC3F8C420234A83F87C60C3F8F4
:103F8000C02014F031FC2B46A2686168284614F06A
:103F90007BFB28464FF4484114F0AEFB28464FF413
:103FA000484114F0AFFC3046BDE87040B6E600BFB3
:103FB000E41402008415FF1F243DFF1F203DFF1F56
:103FC0001C3DFF1F6434FF1FF53C0000E73C000070
:103FD000CB3C0000E53C0000E13C0000DD3C000083
:103FE000273E0000D33D0000B93C0000B53D000075
:103FF0002D3B0000A53B0000A13C00001D3D000042
:10400000213B00005D3D00007D3C0000014B002293
:104010001A6770476434FF1FF7B505238DF8003029
:1040200061F07F038DF8023013168DF803301314FE
:104030008DF804308DF8062013120E461546002424
:10404000012207216846104F8DF805308DF8014098
:1040500014F094FD3B688DF807009B6998473B6816
:104060001DF804009B6801349847082CF7D1022002
:1040700011F0ECFA054B1B6826F0800603EB860670
:10408000756003B0F0BD00BF4042FF1F4442FF1FF8
:10409000F0B5324B01F07F06334485B093F80C3213
:1040A000DB07154605D42E4B1B6803EB86067368A9
:1040B00050E00523012203218DF80430294C8DF8AE
:1040C0000660002301A88DF8053014F057FD236821
:1040D0008DF807009B699847236804211B690DEB45
:1040E0000100984711F0ACFA07462368DB6998474E
:1040F000072805D8384611F0B3FA1428F5D92AE074
:10410000184B1B6808215B690DEB010098470122E1
:10411000072102A89DF80F4014F030FD84421AD107
:104120009DF80830052B16D19DF80930FF2B12D1D0
:104130009DF80A30B3420ED19DF80C309DF80B204B
:104140001B0443EA02639DF80E2013439DF80D20E3
:1041500043EA02232B6005B0F0BD00BFB03FFF1F54
:104160004442FF1F4042FF1F08B5064B064A1B682A
:104170000146002015F000F90020BDE8084014F0C9
:104180000DBA00BF4442FF1FB03FFF1F38B51546B0
:10419000044628B9084614F055FA2860204638BD70
:1041A000042038BD10B5044618B914F0EBF92046C8
:1041B00010BD082010BD10B5044618B914F0D6F98A
:1041C000204610BD082010BD0021F4E74942F2E767
:1041D000F1E7024B186815F0E7B800BF4442FF1F33
:1041E00008B514F001FB0649002318468A6849689F
:1041F00014F04AFA034B1868BDE8084015F0CBB834
:10420000AC15FF1F4442FF1F022804BF0B4B93F85D
:10421000D80020B90A4BDB681B685B690AE00128FB
:104220000BD1064B93F8D830012B06D1044BDB6839
:104230001B689B69034A1068184770476434FF1F66
:10424000E4140200AC15FF1F70B5144E144C00208E
:10425000FFF7DAFFF56820682B689B6898472B68A2
:1042600060689B6898472B68A0689B6898472B6894
:10427000E0689B6898472B6820699B6898472B6883
:1042800060699B6898472B68A0699B689847F36AA8
:104290005B689847BDE8704014F002BBE41402006C
:1042A000AC15FF1F38B50C46054640B914F03CFA72
:1042B0002368C11821602846BDE8384072E708200D
:1042C00038BD08B519BB052823D8DFE800F003087E
:1042D0000D22131B1146002014F054F908E011467A
:1042E000002014F0FBF903E01146002014F03EF921
:1042F000002008BD82EAE271A1EBE271002014F017
:10430000FBF9F5E71146002014F0FCFAF0E708206D
:1043100008BD042008BD10B5144601BB052820D8EF
:10432000DFE800F003070B0F1317002014F008FA62
:1043300012E0002014F0F8F90EE0002014F01CFA4E
:104340000AE0002014F00AFA06E0002014F030FA27
:1043500002E0002014F01EFA2060002010BD0820AA
:1043600010BD042010BD57E692E6012270B511463B
:104370004B4E4C4C072014F0A7FB4B4814F0C0FFE9
:10438000F5686B6803F59272626003F5A272A26031
:1043900003F1C402E26003F1E40203F1640022616C
:1043A00003F18402A433A3612B686261DB6820609F
:1043B00098472B686068DB6898472B68A068DB68C3
:1043C00098472B68E068DB6898472B682069DB68B2
:1043D00098472B6860691B6998472B68A0691B691F
:1043E0009847F56A2B689847304B31491D60314B2F
:1043F000D3F880200A603049C2F804120025012653
:104400002E4916705570C2F808122D4AC3F88C2038
:104410002C4AC3F888202C4AC3F884202B4AC3F8BE
:1044200090202B4AC3F8A4202A4AC3F8A0202A4A85
:10443000C3F89420294AC3F89820294AC3F8B42025
:10444000284AC3F8B020284AC3F8BC20274AC3F83A
:10445000CC20274AC3F8C82032229A674FF4C3728F
:104460005A67244AC3F8C420234A83F87C60C3F8FF
:10447000C02014F0B9F92B46A2686168284614F0F0
:1044800003F928464FF4484114F036F928464FF412
:10449000484114F037FA3046BDE87040B4E600BF3A
:1044A000E4140200AC15FF1FB03FFF1F4042FF1F86
:1044B0004442FF1F6434FF1FE1410000D34100006C
:1044C000B7410000D1410000CD410000C9410000CA
:1044D00017430000C3420000A5410000A5420000B0
:1044E00019400000914000008D4100000942000089
:1044F0000D4000004942000069410000012810B54C
:1045000014460ED006D3022813D1084614F09AF8A8
:1045100020600CE01368084AB3FA83F35B099372D6
:1045200005E01368054AB3FA83F35B0913600020C2
:1045300010BD042010BD00BF4842FF1F6C00FF1FCC
:1045400010B5044618B914F01DF8204610BD082017
:1045500010BD024B186814F0C6BF00BF9442FF1F85
:10456000022804BF0B4B93F8D80020B90A4BDB6834
:104570001B685B690AE001280BD1064B93F8D83021
:10458000012B06D1044BDB681B689B69034AD0688A
:10459000184770476434FF1FE4140200D415FF1F4E
:1045A00038B50020FFF7DCFF0F4B104CDD68E068EA
:1045B0002B685B6998472B6820689B6898472B6835
:1045C000A0689B6898472B68E0689B6898472B68B1
:1045D00020699B6898472B6860689B689847BDE88E
:1045E000384014F05DB900BFE4140200D415FF1F79
:1045F00038B50D46044620B914F0B0F828602046BE
:1046000038BD082038BD38B50C46054640B914F011
:104610008BF82368C11821602846BDE838408FE731
:10462000082038BD10B5044630B9044B58721872D2
:1046300013F09CFF204610BD082010BD4842FF1F0C
:104640000021EFE74942EDE7ECE738B5002014F030
:1046500085F80546A8B90C4B0C48196814F026FFDC
:104660000B4B012402201C60FFF77AFF14F0BCF80A
:10467000084928460B698A68496814F005F82046FD
:1046800038BD002038BD00BF9442FF1F4842FF1FC5
:104690006C00FF1FD415FF1F2DE9F843830C04465F
:1046A0000ED0C0F34243062B0AD1294B5A7A20F090
:1046B0001F040AB11B7800E0DB7A03F01F031C43E0
:1046C000244F254E254D3B68D6F8008095F818906C
:1046D0009B680021C4F3074098472A7E336808EBA3
:1046E000890803EB8203C8F804005A6812025A6072
:1046F0003B6800219B68C4F30720984733682A7EF3
:1047000003EB820201215368184300023B685060AA
:104710009B68E0B298473268297E02EB81014B68C2
:1047200018430011A30C4860106107D0C4F3424342
:10473000072B09D1C4F30111297605E0082302EB08
:1047400083035C60BDE8F88343F00803F7E700BF2C
:104750004842FF1F9042FF1F9442FF1FD415FF1FC6
:1047600010B4C2F3130206290B4C04BF02F01F035E
:10477000E3720A4B186801F0770343F0080300EB7B
:1047800083035A60A37A23B942EA414010BCFFF781
:1047900083BF10BC704700BF4842FF1F9442FF1FF9
:1047A0000020FFF7DDBF10B5084B9B7A0C4623B9FC
:1047B0000B0702D4084600F00DF8054B196804F009
:1047C0007F0401EB8404606810BD00BF4842FF1FF6
:1047D0009442FF1F38B50F2104460020FFF7E3FF86
:1047E0000323B4FBF3F303EB4303E41A240105466C
:1047F00004F0300420F030002043FFF74DFF28463E
:10480000BDE83840FFF748BF0021F8B50546084627
:10481000FFF7C9FF294C2A4E637EC0F3C017BB4285
:104820000AD00FB1327800E0F27A02F01F020621BE
:104830000020FFF795FF6776337A224A1BB1136F8A
:1048400043F0010302E0136F23F00103717A11B109
:1048500043F0020301E023F002030020136713F08A
:104860007DFF3269A17E164B0028B8BF40429042BE
:1048700034BF00270127B94213D090424FF00D01F9
:104880004FF000002CBF5E7B1E7BFFF78CFF06F015
:104890000F0620F00F0232430D210020FFF760FFCA
:1048A000A776094B064A1B682946002014F0A9FD8B
:1048B0000020BDE8F84013F071BE00BFD415FF1F03
:1048C0004842FF1F6434FF1F9442FF1F10B50020B1
:1048D0001446FFF768FF206010BDA82A70B5044693
:1048E0000E461D4600F0EF813DD81D2A00F0A18044
:1048F0001AD8042A00F0A9800AD8012A00F0818081
:1049000072D3022A00F08980032A00F092806EE3BD
:10491000062A00F0B580C0F0A780072A00F0C98001
:10492000082A00F0DA8062E3A32A00F067810ED83B
:10493000A02A00F0218103D88C2A00F0D68056E30B
:10494000A12A00F02E81A22A00F043814FE3A52A7C
:1049500000F07E81C0F06781A62A00F08E81A72A30
:1049600000F0A18143E3B22A00F091821BD8AD2A66
:1049700000F017820BD8AA2A00F0CE81C0F0B781D0
:10498000AB2A00F0DE81AC2A00F0F4812FE3AF2ADD
:1049900000F03E82C0F02082B02A00F04D82B12AA1
:1049A00000F0608223E3B72A00F0BC820BD8B42A5F
:1049B00000F09782C0F08082B52A00F09B82B62A70
:1049C00000F0A58213E3CE2A38D006D8B82A00F02A
:1049D000BF82B92A00F0D48209E3D02A00F0F28223
:1049E000D62A00F0F88202E318B9084613F0A8FEB0
:1049F000DDE1012803D11968304613F0C3FD00241E
:104A0000F8E218B9084613F08FFED0E10128F6D17C
:104A10001968304613F062FEF1E718B9084613F042
:104A2000ABFEC4E10128EAD11968304613F09EFDBF
:104A3000E5E734B9304613F091FEC1E2002800F0FA
:104A4000B082012C00F0D382D9E718B9084613F0E0
:104A5000AFFEACE10128D2D119680029B8BF4942A4
:104A6000304613F049FECAE718B9084613F092FE23
:104A70009DE10128C3D11968304613F043FFBEE71A
:104A800010B9BB4BDB7AA9E20128B8D10021B84E9E
:104A90001B68F3720846FFF786FEC0F3C014002CB3
:104AA000ADD1F27A062102F01F020020FFF758FE76
:104AB000A0E210B9AE4B1B7890E201289FD10021F3
:104AC000AB4C1B6823700846FFF76DFE030696D5B6
:104AD0002278062102F01F027AE10028B1D10846AF
:104AE00013F0B0FDC0F3001061E140B908210020CF
:104AF000FFF759FE00F00F00C0F1080057E1012850
:104B00007FF47DAF1B68102B1FD00CDC022B18D05C
:104B100003DC012B1FD108231FE0042B13D0082B2B
:104B200019D1052319E0402B11D003DC202B12D121
:104B3000032312E0802B0CD0B3F5807F0BD1002330
:104B40000BE0072309E0062307E0042305E0022326
:104B500003E0286002E04FF0FF332B602B68013345
:104B600000F0478208210020FFF71DFE2B6820F08F
:104B70000F0203F00F0329E028B90821FFF713FE05
:104B8000C0F3402013E101287FF439AF0821002051
:104B9000FFF709FE2B685B0203F4007320F4007238
:104BA00014E030B908210020FFF7FDFDC0F300201C
:104BB000FDE001287FF423AF08210020FFF7F3FD7B
:104BC0002B681B0203F4807320F480721A430821BF
:104BD000FEE028B90C21FFF7E6FDC0F3C130E6E0A6
:104BE00001287FF40CAF0C210020FFF7DCFD2B68BF
:104BF000DB0303F4C03320F4C032BEE128B90C213A
:104C0000FFF7D1FDC0F38030D1E001287FF4F7AE8B
:104C10000C210020FFF7C7FD2B689B0303F48043A2
:104C200020F48042A9E128B90C21FFF7BCFDC0F3B4
:104C3000C120BCE001287FF4E2AE0C210020FFF788
:104C4000B2FD2B68DB0203F4C05320F4C05294E1A0
:104C500028B90C21FFF7A7FDC0F3C310A7E0012876
:104C60007FF4CDAE0C210020FFF79DFD2B68DB010A
:104C700003F4F06320F4F0627FE130B90C210020EE
:104C8000FFF791FDC0F3021091E001287FF4B7AE69
:104C90000C210020FFF787FD2B681B0103F0700338
:104CA00020F0700269E108B90C2165E001287FF469
:104CB000A6AE0C210020FFF776FD2B6820F00F0236
:104CC00003F00F0359E128B90521FFF76CFDC0F38C
:104CD000C0306CE001287FF492AE0D210020FFF778
:104CE00062FD2B68DB039BB220F4004256E028B93A
:104CF0000521FFF758FDC0F3413058E001287FF44B
:104D00007EAE0D210020FFF74EFD2B685B0303F400
:104D1000C04320F4C04241E028B90521FFF743FD1C
:104D2000C0F3032043E001287FF469AE0D21002089
:104D3000FFF739FD2B681B0203F4706320F47062E7
:104D40002CE030B905210020FFF72DFDC0F3411004
:104D50002DE001287FF453AE0D210020FFF723FD45
:104D60002B685B0103F0600320F0600216E000BFD7
:104D70004842FF1F30B905212046FFF714FD00F01F
:104D80000F0014E001287FF43AAE0D210020FFF758
:104D90000AFD2B6820F00F0203F00F031A430D21C8
:104DA00016E030B90621FFF7FEFCC0F30040286092
:104DB00020E101287FF423AE0E210020FFF7F3FC51
:104DC0002B681B0403F4803320F480321A430E2135
:104DD0000020FFF7C5FC12E660B90621FFF7E3FCEF
:104DE000000A00F07F0310F0400018BF6FF07F0052
:104DF0001843DCE701287FF402AE0E210020FFF704
:104E0000D2FC2B681B0203F4FE4320F4FE42DDE7D4
:104E100028B90721FFF7C7FCC0F38130C7E7012895
:104E20007FF4EDAD0F210020FFF7BDFC2B689B0345
:104E30009BB220F4404288E030B907210020FFF700
:104E4000B2FCC0F30130B2E701287FF4D8AD0F21E6
:104E50000020FFF7A8FC2B681B0303F4405320F449
:104E6000405272E028B90721FFF79DFCC0F3802073
:104E70009DE701287FF4C3AD0F210020FFF793FCCD
:104E80002B689B0203F4806320F480625DE028B904
:104E90000721FFF788FCC0F3012088E701287FF491
:104EA000AEAD0F210020FFF77EFC2B681B0203F440
:104EB000407320F4407248E028B90721FFF773FCE3
:104EC000C0F3801073E701287FF499AD0F21002013
:104ED000FFF769FC2B689B0103F0400320F04002C0
:104EE00033E000287FF4ADAD0221FFF75CFCC0F396
:104EF00084205CE718B9084613F068FC57E70128DE
:104F00007FF47DAD1968304613F000FC77E510B9E9
:104F1000394B1B6962E001287FF471AD1A68364B8A
:104F20001A616CE528B90721FFF73DFCC0F3C010FA
:104F30003DE701287FF463AD0F210020FFF733FC2C
:104F40002B68DB01DBB220F080021A430F213FE720
:104F500030B904210020FFF726FCC0F3403026E7DB
:104F600001287FF44CAD0C210020FFF71CFC2B68BE
:104F70005B0303F4005320F400521A430C2127E78B
:104F800008B907210FE701287FF439AD0F21002070
:104F9000FFF709FC2B681B0403F4803320F48032F4
:104FA000D3E7164B1B6833B10221FFF7FCFB800AE5
:104FB00000F4787004E00121FFF7F5FBC0F38920CD
:104FC00028601CE500287FF43CAD03210020FFF79A
:104FD000EAFBC0B2EBE618B9074B5B682B6009E04F
:104FE00001287FF40CAD1A68034B5A6007E50424CE
:104FF00000E01024204670BD4842FF1F6C00FF1FD8
:1050000007B5019229B9024601AB0120FFF765FC03
:1050100000E0082003B05DF804FB10B4134604461A
:10502000084611B9224610BC57E4082010BC70474E
:105030002DE9F8438B0C0C460ED0C1F34243062BEE
:105040000AD1294B5A7A21F01F040AB11B7800E0DB
:10505000DB7A03F01F031C43244F254E254D3B688C
:10506000D6F8008095F81B909B680021C4F3074098
:105070009847EA7E336808EB890803EB8203C8F897
:1050800004005A6812025A603B6800219B68C4F30E
:10509000072098473368EA7E03EB820201215368B8
:1050A000184300023B6850609B68E0B29847326842
:1050B000E97E02EB81014B6818430011A30C4860A4
:1050C000106107D0C4F34243072B09D1C4F3011187
:1050D000E97605E0082302EB83035C60BDE8F88312
:1050E00043F00803F7E700BF4842FF1F9042FF1F4D
:1050F0009442FF1FD415FF1F2DE9F041454E464B4A
:10510000DFF86C81454C012730461F6014F056F9DA
:10511000D8F80C506B6803F16402E26003F184027A
:1051200003F59270226103F5A27203F50173236007
:105130002B68A260DB68606098472B68A068DB681A
:1051400098472B68E068DB6898472B6820691B69E3
:1051500098472B682068DB689847D8F81030304AA9
:1051600003F11401116022689A61052333704FF432
:105170007A73736013F038FB2369A26861680020BA
:1051800013F082FA274B2849D3F880200A60274978
:10519000C2F808122649C2F8041200215170117099
:1051A000244AC3F88C20244AC3F88820234AC3F831
:1051B0008420234AC3F89020224AC3F8A420224A1C
:1051C000C3F8A020214AC3F89420214AC3F89820AC
:1051D000204AC3F8B420204AC3F8B0201F4AC3F8BD
:1051E000C0201F4AC3F8BC201E4AC3F8B8201E4A7C
:1051F000C3F8CC20322283F87C709A674FF4167281
:105200005A670220194AC3F8C420BDE8F041FFF7ED
:10521000A7B900BF4842FF1F6C00FF1FD415FF1F36
:105220009042FF1F6434FF1F9442FF1F534500004C
:105230004B46000025460000494600004546000058
:10524000414600001B500000015000004145000095
:1052500007460000A1470000CD48000009480000B3
:10526000FD440000F145000061450000A14500003B
:10527000E41402002DE9F843830C04460ED0C0F379
:105280004243062B0AD1294B5A7A20F01F040AB157
:105290001B7800E0DB7A03F01F031C43244F254EEC
:1052A000254D3B68D6F8008095F800909B6800215A
:1052B000C4F3074098472A78336808EB890803EB62
:1052C0008203C8F804005A6812025A603B68002141
:1052D0009B68C4F30720984733682A7803EB82025F
:1052E00001215368184300023B6850609B68E0B29C
:1052F00098473268297802EB81014B681843001106
:10530000A30C4860106107D0C4F34243072B09D1B6
:10531000C4F30111297005E0082302EB83035C60EC
:10532000BDE8F88343F00803F7E700BF9C42FF1F86
:105330009842FF1FE442FF1FFC15FF1F012810B514
:1053400014460ED006D3022813D1084613F07AF97A
:1053500020600CE01368084AB3FA83F35B09937288
:1053600005E01368054AB3FA83F35B091360002074
:1053700010BD042010BD00BF9C42FF1F7000FF1F26
:1053800010B5044618B913F0FDF8204610BD0820EA
:1053900010BD024B186814F05AB900BFE442FF1F59
:1053A000022804BF0B4B93F8D80020B90A4BDB68E6
:1053B0001B685B690AE001280BD1064B93F8D830D3
:1053C000012B06D1044BDB681B689B69034A1069FB
:1053D000184770476434FF1FE4140200FC15FF1FD8
:1053E00038B50020FFF7DCFF0F4B104CDD6820695B
:1053F0002B685B6998472B6860689B6898472B68A7
:10540000E0689B6898472B6820699B6898472B68E1
:1054100060699B6898472B68A0689B689847BDE8BF
:10542000384013F03DBA00BFE4140200FC15FF1F22
:1054300038B50D46044620B913F090F9286020468F
:1054400038BD082038BD38B50C46054640B913F0C4
:105450006BF92368C11821602846BDE838408FE702
:10546000082038BD10B5044630B9044B5872187284
:1054700013F07CF8204610BD082010BD9C42FF1F91
:105480000021EFE74942EDE7ECE738B5002013F0E3
:1054900065F90546A8B90C4B0C48196814F0BAF820
:1054A0000B4B012402201C60FFF77AFF13F09CF9DC
:1054B000084928464B69CA68896813F0E5F8204610
:1054C00038BD002038BD00BFE442FF1F9C42FF1FD3
:1054D0007000FF1FFC15FF1FC2F31300830C0A4A64
:1054E00005D04314062B04BF00F01F03D372074BF3
:1054F00001F077011B6841F0080103EB810148606E
:10550000937A03B9B6E670479C42FF1FE442FF1F3F
:105510000020FFF7E1BF38B5124B9B7A0C46CBB9A0
:1055200001F0080303F0FF00A3B90F21FFF7F3FF19
:105530000323B4FBF3F303EB4303E31A1B01054618
:1055400003F0300320F030001843FFF793FE2846A5
:10555000FFF790FE044B1B6804F07F0403EB840408
:10556000606838BD9C42FF1FE442FF1F0021F8B570
:1055700005460846FFF7CFFF294C2A4E237FC0F38C
:10558000C017BB420AD00FB1327800E0F27A02F0C5
:105590001F0206210020FFF79FFF2777337A224A58
:1055A0001BB1136F43F0010302E0136F23F00103FB
:1055B000717A11B143F0020301E023F002030020ED
:1055C000136713F0CBF83269617F164B0028B8BF20
:1055D0004042904234BF00270127B94213D0904285
:1055E0004FF00D014FF000002CBF5E7B1E7BFFF7DC
:1055F00092FF06F00F0620F00F0232430D2100202B
:10560000FFF76AFF6777094B064A1B6829460020A7
:1056100013F0A9FF0020BDE8F84012F0BFBF00BFA3
:10562000FC15FF1F9C42FF1F6434FF1FE442FF1F55
:1056300010B500201446FFF76EFF206010BDA82AA9
:1056400070B504460E461D4600F0F3813DD81D2A74
:1056500000F0A1801AD8042A00F0A9800AD8012AF3
:1056600000F0818072D3022A00F08980032A00F0C2
:10567000928068E3062A00F0B580C0F0A780072A70
:1056800000F0C980082A00F0DA805CE3A32A00F069
:1056900067810ED8A02A00F0218103D88C2A00F05F
:1056A000D68050E3A12A00F02E81A22A00F0438187
:1056B00049E3A52A00F07E81C0F06781A62A00F0A8
:1056C0008E81A72A00F0A1813DE3B22A00F08B82EF
:1056D0001BD8AD2A00F011820BD8AA2A00F0D28183
:1056E000C0F0BB81AB2A00F0E281AC2A00F0FA8165
:1056F00029E3AF2A00F03882C0F01A82B02A00F005
:105700004782B12A00F05A821DE3B72A00F0B68220
:105710000BD8B42A00F09182C0F07A82B52A00F04A
:105720009582B62A00F09F820DE3CE2A38D006D8A3
:10573000B82A00F0B982B92A00F0CE8203E3D02A59
:1057400000F0EC82D62A00F0F282FCE218B908469A
:1057500012F0F6FFD7E1012803D11968304612F0A4
:1057600011FF0024F2E218B9084612F0DDFFCAE189
:105770000128F6D11968304612F0B0FFF1E718B9E8
:10578000084612F0F9FFBEE10128EAD11968304657
:1057900012F0ECFEE5E734B9304612F0DFFFBBE271
:1057A000002800F0AA82012C00F0CD82D9E718B9B8
:1057B000084612F0FDFFA6E10128D2D119680029A0
:1057C000B8BF4942304612F097FFCAE718B90846F9
:1057D00012F0E0FF97E10128C3D11968304613F0B9
:1057E00091F8BEE710B9B64BDB7AA3E20128B8D135
:1057F0000021B34E1B68F3720846FFF78CFEC0F31E
:10580000C014002CADD1F27A062102F01F02002054
:10581000FFF762FE9AE210B9A94B1B788AE20128D1
:105820009FD10021A64C1B6823700846FFF773FE2A
:10583000030696D52278062102F01F0274E10028A3
:10584000B1D1084612F0FEFEC0F300105BE140B992
:1058500008210020FFF75FFE00F00F00C0F10800F4
:1058600051E101287FF47DAF1B68102B1FD00CDCA9
:10587000022B18D003DC012B1FD108231FE0042BBF
:1058800013D0082B19D1052319E0402B11D003DCCC
:10589000202B12D1032312E0802B0CD0B3F5807F94
:1058A0000BD100230BE0072309E0062307E00423C4
:1058B00005E0022303E0286002E04FF0FF332B6095
:1058C0002B68013300F0418208210020FFF723FEFE
:1058D0002B6820F00F0203F00F0329E028B90821FC
:1058E000FFF719FEC0F340200DE101287FF439AF26
:1058F00008210020FFF70FFE2B685B0203F4007302
:1059000020F4007214E030B908210020FFF703FEF4
:10591000C0F30020F7E001287FF423AF0821002026
:10592000FFF7F9FD2B681B0203F4807320F48072EB
:105930001A430821F8E028B90C21FFF7ECFDC0F369
:10594000C130E0E001287FF40CAF0C210020FFF70C
:10595000E2FD2B68DB0303F4C03320F4C032B8E16E
:1059600028B90C21FFF7D7FDC0F38030CBE0012828
:105970007FF4F7AE0C210020FFF7CDFD2B689B03D1
:1059800003F4804320F48042A3E128B90C21FFF7FF
:10599000C2FDC0F3C120B6E001287FF4E2AE0C21C5
:1059A0000020FFF7B8FD2B68DB0203F4C05320F49E
:1059B000C0528EE128B90C21FFF7ADFDC0F3C31032
:1059C000A1E001287FF4CDAE0C210020FFF7A3FD5C
:1059D0002B68DB0103F4F06320F4F06279E130B965
:1059E0000C210020FFF797FDC0F302108BE0012887
:1059F0007FF4B7AE0C210020FFF78DFD2B681B0153
:105A000003F0700320F0700263E128B90C21FFF766
:105A100082FD00F00F0076E001287FF4A2AE0C2199
:105A20000020FFF778FD2B6820F00F0203F00F0332
:105A30004FE128B90521FFF76EFDC0F3C03062E0E9
:105A400001287FF48EAE0D210020FFF764FD2B6846
:105A5000DB039BB220F4004241E028B90521FFF7A7
:105A60005AFDC0F341304EE001287FF47AAE0D219B
:105A70000020FFF750FD2B685B0303F4C04320F4C4
:105A8000C0422CE028B90521FFF745FDC0F30320F3
:105A900039E001287FF465AE0D210020FFF73BFDC2
:105AA0002B681B0203F4706320F4706217E048B99E
:105AB00005210020FFF72FFDC0F3411023E000BFB8
:105AC0009C42FF1F01287FF44CAE0D210020FFF700
:105AD00022FD2B685B0103F0600320F060021A4393
:105AE0000D2121E010B99A4B5B7B23E101287FF463
:105AF00038AE1A68964B5A7333E630B90621FFF771
:105B00000AFDC0F30040286020E101287FF429AE9F
:105B10000E210020FFF7FFFC2B681B0403F48033E9
:105B200020F480321A430E210020FFF7D5FC18E63E
:105B300060B90621FFF7EFFC000A00F07F0310F0C8
:105B4000400018BF6FF07F001843DCE701287FF4A6
:105B500008AE0E210020FFF7DEFC2B681B0203F4C9
:105B6000FE4320F4FE42DDE728B90721FFF7D3FC0E
:105B7000C0F38130C7E701287FF4F3AD0F21002087
:105B8000FFF7C9FC2B689B039BB220F4404288E0DE
:105B900030B907210020FFF7BEFCC0F30130B2E7A7
:105BA00001287FF4DEAD0F210020FFF7B4FC2B6845
:105BB0001B0303F4405320F4405272E028B907213C
:105BC000FFF7A9FCC0F380209DE701287FF4C9AD51
:105BD0000F210020FFF79FFC2B689B0203F48063DA
:105BE00020F480625DE028B90721FFF794FCC0F340
:105BF000012088E701287FF4B4AD0F210020FFF7D2
:105C00008AFC2B681B0203F4407320F4407248E0C6
:105C100028B90721FFF77FFCC0F3801073E7012844
:105C20007FF49FAD0F210020FFF775FC2B689B01CF
:105C300003F0400320F0400233E000287FF4B3ADCE
:105C40000221FFF768FCC0F384205CE718B908461E
:105C500012F0BCFD57E701287FF483AD1968304688
:105C600012F054FD7DE510B9394B1B6962E0012843
:105C70007FF477AD1A68364B1A6172E528B90721AF
:105C8000FFF749FCC0F3C0103DE701287FF469AD80
:105C90000F210020FFF73FFC2B68DB01DBB220F077
:105CA00080021A430F213FE730B904210020FFF79B
:105CB00032FCC0F3403026E701287FF452AD0C21BE
:105CC0000020FFF728FC2B685B0303F4005320F44B
:105CD00000521A430C2127E708B907210FE70128D2
:105CE0007FF43FAD0F210020FFF715FC2B681B044C
:105CF00003F4803320F48032D3E7164B1B6833B1B2
:105D00000221FFF708FC800A00F4787004E001210A
:105D1000FFF701FCC0F38920286022E500287FF40A
:105D200042AD03210020FFF7F6FBC0B2EBE618B945
